:020000040800F2
:10000000D84F002069010008DF380008BF3400081D
:10001000DD380008E90300087168000800000000EE
:100020000000000000000000000000006D3A000821
:100030008504000800000000ED380008953A00082B
:100040008301000883010008830100088301000880
:100050008301000883010008830100088301000870
:10006000830100088301000883010008ED030008F4
:1000700083010008F9030008830100080504000853
:100080008301000883010008990200088301000829
:100090008301000883010008830100088301000830
:1000A0008301000883010008830100088301000820
:1000B00083010008253B0008830100088301000834
:1000C0008301000883010008830100088301000800
:1000D000830100088301000829410008830100080A
:1000E000830100088301000883010008000000006C
:1000F0000000000000000000000000000000000000
:1001000000000000000000008301000883010008D7
:1001100083010008830100088301000883010008AF
:10012000830100088301000883010008830100089F
:1001300083010008000000000000000083010008A7
:10014000830100088301000883010008E1380008EA
:10015000DFF810D000F08EF8004800472581000835
:10016000AFF30080D84F002006488047064800477C
:10017000FEE7FEE7FEE7FEE7FEE7FEE7FEE7FEE757
:10018000FEE7FEE7213B0008510100082DE9F05F82
:100190000546002092469B468846064681464024F6
:1001A0001BE0284641464746224600F020F85346C9
:1001B0005A46C01A914110D311461846224600F003
:1001C0004AF82D1A67EB01084F462246012000210C
:1001D00000F041F817EB00094E41201EA4F1010484
:1001E000DFDC484631462A464346BDE8F09F202AD8
:1001F00004DB203A21FA02F00021704721FA02F3D1
:10020000D040C2F12002914008431946704740EAAD
:1002100001039B0703D009E008C9121F08C0042A84
:10022000FAD203E011F8013B00F8013B521EF9D26B
:100230007047D2B201E000F8012B491EFBD2704793
:100240000022F6E710B513460A4604461946FFF7A2
:10025000F0FF204610BD202A04DB203A00FA02F10C
:10026000002070479140C2F1200320FA03F31943A4
:1002700090407047064C074D06E0E06840F00103EF
:1002800094E8070098471034AC42F6D3FFF764FFB8
:1002900080860008A0860008014800F008BA000027
:1002A0000C05002070B5044600688168C943C90781
:1002B00017D1816821F00101816000F033FF05460C
:1002C0000AE000BF00F02EFF401B022804D920687E
:1002D0008068C043C00706D020688068C043C0075C
:1002E000F0D0002070BDA06A40F01000A062E06A6B
:1002F00040F00100E062012070BD10B50146406A87
:10030000826A12F0500F05D0006A026BBDE81040FF
:1003100008461047816A41F400718162016889686A
:10032000C1F3424107290CD1017B51B9816A21F403
:1003300080718162816AC90403D4816A41F001013C
:10034000816200F0B1F910BD10B5406A816A41F0D8
:1003500040018162C16A41F00401C16200F0A6F966
:1003600010BD10B5406A00F0A0F910BDF8B5002628
:100370000446009600688168C943C9072DD081688A
:1003800041F001018160164816490068B0FBF1F0A8
:1003900000E0401E00900028FBD100F0C3FE05469F
:1003A00016E000BF00F0BEFE401B022810D92068F6
:1003B0008068C043C0070BD0A06A40F01000A06264
:1003C000E06A40F00100E06284F824600120F8BD9A
:1003D00020688068C043C007E4D10020F8BD000059
:1003E0001800002040420F00FEE70000014800F026
:1003F000F3BB00003C050020014800F0EDBB00000D
:10040000AC060020014800F0E7BB0000D805002042
:1004100030B590F840500124AC40C56B6C60046866
:1004200063604368102B036803D099600068C26062
:1004300030BD9A600068C16030BD000010B5002278
:100440004FEA020100EB8203521CC3F880130F2A0B
:10045000F8D300224FF400738418521C84F81C1146
:100460009A42F9D30170417001228270C0F8C01322
:10047000027640238371417680F81C1380F81D2397
:10048000002010BD704772B6FEE70022AFF3008077
:1004900030B50E4B054601205C7A012C15D8587AF0
:1004A00000241C54587A03EB800045605D7A03F108
:1004B00008002A54587A421C5A72303008703A2088
:1004C00048702F208870CC70002030BD400E002076
:1004D000F8B500250446009590F8240001280BD0BB
:1004E000012084F824002046FFF7DCFE2046FFF7B9
:1004F0003DFF060002D050E00220F8BDA06A20F4C3
:10050000885040F00200A062022001F087F82549DF
:100510000968B1FBF0F0400000E0401E00900028A8
:10052000FBD12068816841F00801816000F0FAFD8C
:10053000074608E000F0F6FDC01B0A2803D9206832
:100540008068000715D4206880680007F2D420680E
:10055000816841F00401816000F0E4FD074612E08B
:1005600000F0E0FDC01B0A280DD920688068400714
:1005700009D5A06A20F0020040F01000A06284F8C3
:1005800024500120F8BD206880684007E8D4A06AA4
:1005900020F0020040F00100A06284F824503046B0
:1005A000F8BD00001800002070470000F8B50024D6
:1005B000009490F824202546012A12D0012280F8C8
:1005C00024204A681F23072A0DD20668776B521E23
:1005D00002EB820293409F430B6893401F43776373
:1005E00019E00220F8BD06680D2A0AD2376BD21F27
:1005F00002EB820293409F430B6893401F43376393
:1006000009E0F76A0D3A02EB820293409F430B68C0
:1006100093401F43F7620A68072306680A2A0AD331
:10062000F7680A3A02EB420293409F438B6893407B
:100630001F43F76008E0376902EB420293409F4393
:100640008B6893401F4337610A68102A01D0112A32
:1006500020D1124B02689A4217D193681B0219D419
:10066000936843F4000393600968102912D10C4980
:100670000C4A0968B1FBF2F101EB8101490000E08D
:10068000491E00910029FBD104E0816A41F020015C
:100690008162012480F824502046F8BD00240140E6
:1006A0001800002040420F0070477047704770B537
:1006B0000446006806684568A90625D5B10723D514
:1006C000A16AC90603D4A16A41F40071A1628168DC
:1006D000C1F34241072910D1217B71B9416821F052
:1006E00020014160A06A20F48070A062A06AC0046A
:1006F00003D4A06A40F00100A0622046FFF7D4FFB7
:1007000021686FF01200086028062ED570072CD5DE
:10071000A06AC00603D4A06A40F40050A06220681A
:100720008168C1F30231072909D04168490515D410
:100730008168C1F34241072910D1217B71B9416819
:1007400021F080014160A06A20F48050A062A06A7C
:10075000C00503D4A06A40F00100A0622046FFF764
:1007600023FF21686FF00C00086068060CD5F007C5
:100770000AD0A06A40F48030A062204600F094F8CD
:1007800021686FF00100086070BD00002DE9F041A4
:100790004FF0000704003D467ED0A06A002628B92D
:1007A000E66284F82460204600F080F82046FFF7D7
:1007B00079FDA16AC90600D420B1A06A40F01000FA
:1007C000A06269E0A16A21F4885141F00201A162AE
:1007D0006268E169237B0A4347EA43010A43A1684F
:1007E0004FF48077B94209D0012907D05FF00001AA
:1007F00094F814C0BCF1010F02D00AE03946F7E7C3
:10080000F3B1A36A43F02003A362E36A43F0010358
:10081000E3622368D3F804C02CF4694C4CEA010C61
:10082000C3F804C021688B68DFF870C003EA0C03CA
:1008300013438B60A168B9420BD0012909D00CE0A9
:10084000DFF85CC0A3690CEB43330B4343F4006156
:10085000DFE7218A0D05A5F580152168CB6A23F411
:1008600070032B43CB62216889680E4B194091427B
:1008700008D1E662A16A21F0020141F00101A16202
:10088000BDE8F081A06A20F0020040F01000A062F4
:10089000E06A40F00100E0620120F1E7FDF7E1FFCE
:1008A00000E0FFFFFE0E1FFF7047000070B586B02E
:1008B00000250646009501950295039500681E499E
:1008C000884236D11D49886940F400708861886982
:1008D00000F400700490886940F004008861886921
:1008E000694600F0040004907020009003200190FD
:1008F000134800F01DFB144C1248C4E90005802089
:10090000C4E9025040002061800060612020C4E9F9
:100910000605204600F084FA08B1FFF7B4FD346202
:10092000002211461220666200F046FE122000F0FE
:1009300035FE06B070BD00000024014000100240EA
:1009400000080140080002403C0500202DE9F04766
:10095000894604463B4900683B4F0E1D904688423D
:1009600001D0B84207D1306810F4702F03D00125B0
:100970002846BDE8F08794F8240001280CD0012017
:1009800084F824002046FFF7F1FC05004FF000003A
:1009900004D084F82400EBE70220EAE7A16A40F6DD
:1009A0000162914341F48071A1622168B94218D17A
:1009B000326812F4702F14D0A16A41F48011A16240
:1009C0003168490505D5A16A21F4005141F48051EF
:1009D000A162A16AC9040AD5E16A21F00601E162B7
:1009E00006E0A26A22F48012A2624968E9E7E062A6
:1009F00084F82400216A15488862216A1448C86274
:100A0000216A1448086321686FF0020008602068BA
:100A1000816841F480718160216843464A464C31C7
:100A2000206A00F03BFA20688168C1F3424107293F
:100A3000816803D041F48011816099E741F4A001FD
:100A4000FAE700000024014000280140FB020008F2
:100A5000630300084903000810B590F82110002234
:100A6000022905D00421816380F82020012010BDD7
:100A700001680B6823F00E030B6001680B6823F01C
:100A800001030B6090F84030C46B012101FA03F3BD
:100A9000636080F8211080F82020104610BD00000F
:100AA0002DE9F05F90F821100024022903D00421E1
:100AB0008163012485E001680A6822F00E020A6061
:100AC00001680A6822F001020A603F4E3E4FB215EB
:100AD000DFF8F4C0DFF8F090DFF8ECA0DFF8E8B062
:100AE000DFF8E4E00168783F13011502ACF1640C13
:100AF000A9F15009AAF13C0AABF1280BAEF1140E92
:100B00004FF48018B14227D9B9420ED0614512D0B6
:100B100049451DD0514518D0594518D0714501D1CE
:100B2000424615E0294EB14201D1012210E0274E84
:100B30001436B14201D110220AE0244E2836B142C7
:100B400006D0224A3C32914201D11A4600E02A46A0
:100B50001E49091F0A602BE0B94213D0614517D026
:100B6000494522D051451DD059451DD0714501D16F
:100B700042461AE0B14202D14FF0807215E0134EA6
:100B8000B14201D1012210E0104E1436B14201D120
:100B900010220AE00D4E2836B14206D00B4A3C32F4
:100BA000914201D11A4600E02A46074980394A603D
:100BB000012180F82110002180F82010416B01B143
:100BC00088472046BDE8F09F8000024008040240AC
:100BD00090F82100704700002DE9F05FC16B0A68B2
:100BE00001680B68046C4FF0040808FA04F8844D9F
:100BF000844E854FDFF814C2DFF81492DFF814A298
:100C0000DFF814B2DFF814E218EA020F65D05FEAE9
:100C1000437862D50A68920603D40A6822F0040277
:100C20000A60DFF8F0814FF48062016808F114086F
:100C300013011402414524D9A9420DD0B1420FD06D
:100C4000B9421AD0614515D0494515D0514501D159
:100C5000120312E0594501D104220EE0714501D181
:100C600040220AE06D4D1435A94206D06B4A283265
:100C7000914201D11A4600E022466749091F0A60E5
:100C800029E0A94213D0B14215D0B94220D0614524
:100C90001BD049451BD0514502D14FF4800217E0CB
:100CA000414502D14FF0806212E0594501D1042242
:100CB0000EE0714501D140220AE0584D1435A94299
:100CC00006D0564A2832914201D11A4600E0224607
:100CD0004B4908394A60C16A71E04FF0020808FACE
:100CE00004F818EA020F70D05FEA83786DD50A68BD
:100CF000920606D40A6822F00A020A60012180F8EE
:100D00002110DFF810814FF40072016808F1140817
:100D100013011402414524D9A9420DD0B1420FD08C
:100D2000B9421AD0614515D0494515D0514501D178
:100D3000120312E0594501D102220EE0714501D1A2
:100D400020220AE0354D1435A94206D0334A283214
:100D5000914201D11A4600E022462F49091F0A603C
:100D600029E0A94213D0B14215D0B94220D0614543
:100D70001BD049451BD0514502D14FF4001217E05A
:100D8000414502D14FF0007212E0594501D10222D3
:100D90000EE0714501D120220AE0204D1435A94210
:100DA00006D01E4A2832914201D11A4600E022465E
:100DB000134908394A60002180F82010816A00290F
:100DC0001CD0BDE8F05F0847FFE70825A5401542A5
:100DD00014D01A0712D50A6822F00E020A6090F8A1
:100DE0004020C36B012101FA02F25A60816380F84E
:100DF0002110002180F82010016BE0E7BDE8F09F92
:100E0000080002401C000240300002404400024042
:100E1000580002406C000240080402401C040240DA
:100E200030B560B11A4B026814219A4209D2194BAD
:100E30001344B3FBF1F18900016417490AE0012072
:100E400030BD134B5B421344B3FBF1F189000164E5
:100E50000F490839C163022180F82110136843F655
:100E6000F0718B43F0E901142143D0E902452C4392
:100E7000214304692143446921438469214319437F
:100E8000116000214163012242770177084630BD9D
:100E900008040240F8FFFDBF0000024070B50446A0
:100EA00090F82000002501280CD0012084F82000B3
:100EB00094F821600020012E06D084F8200002253D
:100EC000284670BD022070BD022684F82160A06310
:100ED0002068066826F0010606602046FFF798FAAB
:100EE000E06A00282068016802D041F00E0106E0A7
:100EF00021F0040101602068016841F00A010160ED
:100F00002068016841F001010160D9E770B504462D
:100F100000F008F90546601C02D00448007804443B
:100F200000F000F9401BA042FAD370BD0C00002075
:100F30002DE9F84FDFF8B8910024A9F1040B2346FE
:100F40000F2709F1040AABF1040EC9E00125A54001
:100F50002A40AA427DD1674ED1F804C0ACEB060806
:100F6000B44532D014DCBCF1030F3AD009DCBCF13B
:100F7000000F2AD0BCF1010F1CD0BCF1020F31D1FF
:100F80001DE0BCF1110F17D0BCF1120F2AD119E0EE
:100F9000B8F5881F19D006DCB8F5803F15D0B8F534
:100FA000801F1FD111E0B8F5001F0ED0B8F5041F47
:100FB00018D10AE0CB6815E0CB681B1D12E0CB68A6
:100FC00008330FE0CB680C330CE08B682BB1012B9E
:100FD0004FF0080303D0456104E0042302E00561FB
:100FE00000E00023FF2A01D8064601E000F10406D4
:100FF0004FEA840501D9A5F12005D6F8008007FA4B
:1010000005FC28EA0C0803FA05F548EA0508C6F8C5
:1010100000804D68ED0062D5374DAE6946F001069F
:10102000AE61AD6924F0030605F001050095334D6E
:1010300006EB050CDCF80850A607360F07FA06F891
:1010400025EA0805DFF8B880404503D14FF00008D5
:1010500017E044E0DFF8AC80404502D14FF00108D2
:101060000FE0DFF8A480404502D14FF0020808E00D
:10107000DFF89880404502D14FF0030801E04FF0BF
:10108000040808FA06F848EA0508CCF808804D6814
:10109000D9F80060ED024D4601D5164300E09643B5
:1010A0002E604D68DAF80060AD02554601D5164352
:1010B00000E096432E604D68DBF80060AD035D46AE
:1010C00001D5164300E096432E604D68DEF80060BF
:1010D000ED03754601D5164300E096432E60641C6F
:1010E0000D682A46E5407FF431AFBDE8F88F000077
:1010F00008040140000011100010024000000140EF
:1011000000080140000C01400010014000140140A3
:101110008068084000D0012070470AB10161704723
:101120000904FBE701488068704700000C000020BC
:10113000D0F81C0303F0ADBBD0F81C0303F0B3BB25
:10114000006805F0F2B8006805F0F3B801EB410162
:1011500000EB01100022C27682761046704701EB48
:10116000410100EB011090F84000704701EB410194
:1011700000EB0110006B704710B5044690F81403A3
:10118000012809D0012084F81403206805F0DCF858
:10119000002084F8140310BD022010BD2DE9FE4F7D
:1011A0000446DDE90D9790F81403DDF830A09B4666
:1011B0001646884601281AD0012084F8140308EB4B
:1011C000480004EB001300255D7683F814B083F823
:1011D000158083F81C9006F07F00987541462046E4
:1011E000FFF7B4FF300605D50120D87503E00220D3
:1011F000BDE8FE8FDD7583F818A0B8B2D883CDF8AE
:1012000000A0CDE901905B4632464146206805F0DA
:1012100005F984F81453EBE770472DE9F00301EB6F
:101220004104DDE906C9DDE9087500EB0414022676
:10123000E2752377BCF1000F0AD084F82060002506
:1012400063B1012B2CD0022B11D0032B15D10EE052
:101250004FF0030884F820806576F0E7BCF1010FB9
:101260000BD152B9CFB9012284F8352003E0A2B1E5
:1012700094F83420A2B184F82060C4F82490E76286
:1012800084F840502563617584F8415004F11401DD
:101290000068BDE8F00305F040B994F83520E9E7AF
:1012A00084F82050E9E700002DE9F0410668044683
:1012B000304605F045F8012877D1206805F016FA88
:1012C000002872D0206805F011FA800203D5216849
:1012D0004FF400104861206805F008FAC00203D5F9
:1012E00021684FF480104861206805F0FFF9400143
:1012F00003D521684FF080604861206805F0F6F959
:10130000800702D5216802204861206805F0EEF9C7
:10131000800018D521684FF000504861D6F840048D
:10132000C00710D11021304604F0E1FF304604F030
:10133000C2FF607A022803D10121206805F0B2F9CA
:101340002046FFF7F9FE206805F0D0F9C00102D56C
:10135000204602F027F8206805F0C8F9000705D5F7
:10136000204600F09EF8216808204861206805F0BA
:10137000BDF9800124D5206805F0CBF8074600258B
:101380004FF0010815E000BF05F00F0108FA01F069
:1013900038420DD006EB4510D0F80005E9B2000444
:1013A000204603D501F0E2FD02E01CE001F00DFF54
:1013B0006D1C6079A842E7D821684FF00070486141
:1013C000206805F093F9C043C0060CD420688169F9
:1013D00021F010018161204602F02EF82068816919
:1013E00041F010018161BDE8F08138B5040004D0FE
:1013F00094F81503002510B106E0012038BD84F8EB
:101400001453204600F026F8032084F81503A57134
:10141000206804F02EFF207C8DF8000094E80F0077
:1014200004F000FF022560B90121206805F09AF957
:1014300038B9207C8DF8000094E80F0005F0EAF838
:1014400010B184F81553D8E7012084F81503002063
:1014500038BD000008B50068B0F1A04F12D10A48AD
:10146000416941F4805141614069002200F480509B
:1014700000901146432000F09FF8BDE8084043204B
:1014800000F08CB808BD000000100240D0F81C032A
:1014900003F090BAD0F81C0303F090BA006805F08E
:1014A00048B9D0F81C0303F042BA10B5044690F8CE
:1014B000140301280DD0012084F8140301212068B1
:1014C00004F0DDFE206804F0F0FE002084F8140330
:1014D00010BD022010BD10B5044690F81403012879
:1014E00009D0012084F81403206805F069F9002070
:1014F00084F8140310BD022010BD0000024881686A
:1015000002781144816070470C000020074810B534
:10151000016841F010010160032000F06DF80F2018
:1015200000F006F800F024F8002010BD0020024072
:1015300070B50D4D04464FF47A712878B1FBF0F088
:101540000A490968B1FBF0F000F060FF48B9102CBF
:1015500007D200222146501E00F02EF800206C60B9
:1015600070BD012070BD00000C000020180000209C
:10157000094808B5816941F001018161816901F083
:1015800001010091C16941F08051C161C06900F061
:101590008050009008BD000000100240002809DBC8
:1015A00000F01F02012191404009800000F1E0207D
:1015B000C0F8001170470000F0B40E4B1B680C46D9
:1015C000C3F30223C3F10705042D00D90425191D17
:1015D000072901D2002300E0DB1E012606FA05F1EF
:1015E000491E214099409E40761E16403143F0BC72
:1015F00005F00EBB0CED00E0064900F0070208689C
:101600004FF6FF03184040EA0220034A10430860E7
:10161000704700000CED00E00000FA0570B50146CF
:1016200000203C4A3C4C04293FD00BDC012957D018
:10163000022939D100F0E0F96168C1F38131491C18
:1016400049002FE0082943D010292DD16368216873
:10165000C90129D53148C3F38341415CD8031AD568
:10166000E06A2E4B00F00F000E33185CE36ADB03D8
:101670000AD5E36AE56AC3F303135B1CB2FBF3F21A
:10168000C5F30325AD1C6A43B2FBF0F048430D29B6
:1016900003D1400801E0224848436168490203D46D
:1016A00040000321B0FBF1F070BDE16A890311E055
:1016B0002168C900F8D5E06AE16AC0F30310401C54
:1016C000B2FBF0F0C1F30331891C4843400070BD08
:1016D000E16A49030029EBDBBDE8704000F09CB9EA
:1016E000226AC2F30121012903D1920701D5C8035F
:1016F00070BD022905D1626A920702D549F64040C1
:1017000070BD0329FCD121688903F9D54FF224402B
:1017100070BD000000127A0000100240B28500087F
:1017200000093D002DE9F843044600785B4DC007F1
:101730004FF0010951D0E8690026C00008D4E869DB
:1017400040F08050E861E869012600F08050009088
:1017500053480168C90512D40168804641F480717C
:101760000160FFF7DFFC074605E000BFFFF7DAFC8A
:10177000C01B642877D8D8F80000C005F6D5286AC1
:1017800010F440701ED0A18801F44071814219D03C
:10179000286A444920F44070C1F8009000220A6091
:1017A0002862C0070ED0FFF7BDFC074641F288381B
:1017B00005E000BFFFF7B6FCC11B414553D8286ABE
:1017C0008007F7D5286A616820F4407008432862D2
:1017D0001EB1E86920F08050E8612078800705D5C7
:1017E0006868A16820F4404008436860207840079A
:1017F00005D5E86AE16820F400300843E862207803
:10180000000705D5E86A216920F480200843E862D2
:10181000E86A800302D4E86A400333D52868C00030
:1018200028D42868400105D5E86AA16900F0F000D5
:10183000884225D1E86AA16920F0F0000843E862F7
:10184000E86A616920F470400843E8621649C1F80B
:101850007090FFF767FC064608E004E0FFF762FCC3
:10186000801B642802D90320BDE8F8832868800023
:10187000F4D507E0E86A616900F47040884201D05D
:101880000120F1E72078C00605D56868E16920F4F9
:101890008000084368600020E6E700000010024076
:1018A0000070004040044242000042422DE9F047EF
:1018B0000F46050061D0434E306800F00700B84283
:1018C00009D2306820F0070038433060306800F0FB
:1018D0000700B84251D128683B4C810712D5400718
:1018E00003D5606840F4E06060602878000703D5A5
:1018F000606840F4605060606068A96820F0F000A3
:10190000084360602878C00728D06868012810D094
:101910002168022810D0890700292EDA616821F099
:10192000030101436160FFF7FDFB804641F2883906
:101930000DE021688903EFE78901EDE7FFF7F2FB8E
:10194000A0EB0801494502D90320BDE8F087606893
:10195000696800F00C00B0EB810FEFD1306800F047
:101960000700B8420BD9306820F0070038433060D8
:10197000306800F00700B84201D00120E5E7287880
:10198000400705D56068E96820F4E06008436060BE
:101990002878000706D56068296920F4605040EA7D
:1019A000C100606000F038F86168084AC1F30311B3
:1019B000515CC8400649086006480068FFF7B8FD5A
:1019C0000020C2E70020024000100240D08500083D
:1019D00018000020100000200448054900684968EC
:1019E000044AC1F30221515CC8407047180000202E
:1019F00000100240E0850008044805490068496875
:101A0000044AC1F3C221515CC8407047180000204D
:101A100000100240E08500082DE9F0411D494A68A8
:101A20001D4802F00C03042B2ED0082B2CD11B4890
:101A3000C2F38343C45CD00328D5C86A174A00F0B8
:101A40000F000E32105CCA6AD20316D5CA6AC96A80
:101A5000C2F30312C1F30321521C891CA2FB002311
:101A6000A1FB04150C4F0026A1FB070C05FB07C5C5
:101A700001FB0651FEF78AFB03E007496143B1FB16
:101A8000F0F00D2C00D14008BDE8F081044860431F
:101A9000FAE700000010024000127A009485000866
:101AA00000093D002DE9F84F040070D02078F14D79
:101AB000C00749D06868C0F38100012807D0686872
:101AC000C0F38100022809D16868C00306D52868E0
:101AD000800339D5A0680028E7D035E0A068B0F5CC
:101AE000803F0BD010B1B0F5A02F11D0286820F4A2
:101AF00080302860286820F4802002E0286840F4C4
:101B000080302860A06890B1FFF70CFB06460AE021
:101B1000286840F480202860F0E700BFFFF702FB50
:101B2000801B642876D828688003F7D50CE0FFF77F
:101B3000F9FA064605E000BFFFF7F4FA801B6428B7
:101B4000F0D828688003F7D42078CB4E80074FF078
:101B500001094FF000073AD5686810F00C0F07D064
:101B60006868C0F38100022809D16868C00306D400
:101B70002868800715D56069012808D111E06069DF
:101B8000B8B1C6F80090FFF7CDFA804606E042E112
:101B9000FFF7C8FAA0EB08000228C3D8286880071E
:101BA000F6D52868A16920F0F80040EAC100286055
:101BB0000DE03760FFF7B6FA804605E0FFF7B2FAAE
:101BC000A0EB08000228ADD828688007F6D420785A
:101BD00000072ED5A948E169E9B1C0F80090FFF7E8
:101BE000A1FA804606E000BFFFF79CFAA0EB0800D0
:101BF000022897D8686A8007F6D5A1484FF4FA51B1
:101C00000068B0FBF1F0009000BF0098411E009109
:101C1000FAD20EE0B0E00760FFF784FA804605E0F4
:101C2000FFF780FAA0EB0800022889D8686A8007CD
:101C3000F6D42078400763D5E8694FF00008C0006B
:101C400009D4E86940F08050E861E8694FF0010884
:101C500000F0805000908B480168C90512D40168DB
:101C6000834641F480710160FFF75CFA824605E02B
:101C7000FFF758FAA0EB0A0064287DD8DBF80000D3
:101C8000C005F5D5206901280AD008B1052813D070
:101C9000286A20F001002862286A20F0040002E08F
:101CA000286A40F001002862206941F2883B98B11F
:101CB000FFF738FA82460BE0286A40F004002862F9
:101CC000EEE700BFFFF72EFAA0EB0A01594553D803
:101CD000286A8007F6D50CE0FFF724FA824605E073
:101CE000FFF720FAA0EB0A01594545D8286A80077A
:101CF000F6D4B8F1000F03D0E86920F08050E86115
:101D0000E06AD0B36968C90307D56968C1F3810186
:101D1000022902D1E96AC9037DD4022808D0E86A01
:101D200020F48030E862B766FFF7FCF980463BE0BC
:101D30002868C00005D5E86A616B00F0F0008842B1
:101D400069D1B766FFF7EEF9804605E0FFF7EAF9DB
:101D5000A0EB0800642874D828680001F6D4E86A6B
:101D6000616B20F0F0000843E862E86A216B20F420
:101D700070600843E86201E063E018E0C6F868902C
:101D8000FFF7D0F9804605E0FFF7CCF9A0EB08009B
:101D9000642856D828680001F6D508E0FFF7C2F994
:101DA000A0EB080064284CD828680001F6D4206A0B
:101DB00090B36968C1F38101022949D002283766CE
:101DC00003D0FFF7AFF904463EE0FFF7ABF9074653
:101DD00005E000BFFFF7A6F9C01B022831D828682C
:101DE0008001F7D4606AB0F5803F09D1E86A616884
:101DF0000843E862E86AE16820F00F000843E862FF
:101E0000D4E909010843696821F474110843686042
:101E1000C6F8609001E028E029E0FFF783F9044666
:101E200005E000BFFFF77EF9001B022809D82868EB
:101E30008001F7D51BE000BFFFF774F9001B0228F3
:101E400002D90320BDE8F88F28688001F4D40EE0A1
:101E50000128F7D06868626A00F48031914204D1A9
:101E6000A16A00F47010884201D00120EAE7002046
:101E7000E8E70000001002400000424280044242B5
:101E80001800002000700040704770B5040009D0B1
:101E9000606A002540B125616561A56294F8510032
:101EA00040B10CE0012070BD6068B0F5827FF4D0D5
:101EB000E561F2E784F85050204600F03FF8022038
:101EC00084F851002068016821F040010160A08879
:101ED000218900F4827001F404410843A18901F4CE
:101EE00000610843217C01F002010843217D01F0DB
:101EF00001010843218B01F400710843217F01F0A7
:101F00003801084394F8201001F080010843218D26
:101F100001F40051084321680860A069042101EA26
:101F20001040216848602068C16921F40061C161E6
:101F30006565012084F85100002070BD70B586B041
:101F400000250646009501950295039500682049F5
:101F500088423BD11F49C86940F48040C861C869C4
:101F600000F480400490886940F008008861886926
:101F7000194C00F0080004904FF42040009002201B
:101F800001900320039069462046FEF7D1FF4FF4ED
:101F90008040CDE90005694620460295FEF7C8FF5E
:101FA0000F4C0E4820601020C4E901058020C4E9D0
:101FB00003054FF440506561C4E906502046FEF722
:101FC0002FFF08B1FEF75FFAB464666206B070BD19
:101FD0000038004000100240000C01405800024050
:101FE000D80500202DE9F84F984616468A46044643
:101FF000FFF798F8814694F8510001281ED1BAF1F4
:10200000000F73D0002E71D094F85000012815D025
:10201000012784F85070032084F85100002565657D
:10202000C4F830A0A686E686A563A587E587656423
:102030002564A068B0F5004F03D00CE00220BDE895
:10204000F88F2068016821F0400101602068016874
:1020500041F48041016020680168490603D40168A9
:1020600041F040010160E068B0F5006F606803D0A6
:1020700048B3012E27D047E008B1012E1FD1206BB5
:1020800021680088C86006E020688168890709D552
:10209000216B0988C160206B801C2063E08E401E8C
:1020A000E0860CE0FFF73EF8A0EB0901414503D3C1
:1020B000B8F1FF3F03D035E0B8F1000F32D0E08E29
:1020C0000028E1D123E0206B21680078087306E046
:1020D0002068816889070AD5216B09780173206B14
:1020E000401C2063E08E401EE0860DE02BE0FFF7F1
:1020F00019F8A0EB0901414503D3B8F1FF3F03D024
:1021000010E0B8F1000F0DD0E08E0028E0D14A4673
:102110004146204601F033FC08B120206065A068EC
:1021200030B109E084F8517084F85050032086E7FC
:102130002068C1688068009084F8517004F8505F8E
:1021400060680028F3D0012079E72DE9FF4F81B0C6
:102150001D46934604464FF001090E9EFEF7E2FF2E
:10216000074694F851006168012806D0B1F5827FD6
:102170003CD1A168C9BB042838D10298002871D08D
:10218000BBF1000FFBD0002DF9D094F850000128CE
:102190002CD04FF0010A84F850A094F85100042884
:1021A00002D0052084F851004FF00008C4F8548094
:1021B000C4F838B0E587A58702992163E586A5862E
:1021C000C4F84080C4F8448020680168490603D4FC
:1021D000016841F040010160E068B0F5006F60689F
:1021E00008D0F0B3012D49D081E0FFE7022005B00F
:1021F000BDE8F08F08B1012D39D1206B216800882E
:10220000C860206B801C2063E08E401EE0862EE0BC
:102210002068816889070FD5E18E69B1B9F1010F96
:102220000AD1216B0988C160206B801C2063E08E7D
:10223000401EE0864FF0000920688168C9070CD075
:10224000E18F51B1C068A16B0880A06B801CA063B6
:10225000E08F401EE0874FF00109FEF763FFC01BCF
:1022600001E00BE067E0B04201D3701C50D1E08E7A
:102270000028CDD1E08F0028CAD13EE0206B216834
:1022800000780873206B401C2063E08E401EE086BF
:102290002DE02068816889070FD5E18E69B1B9F119
:1022A000010F0AD1216B09780173206B401C206358
:1022B000E08E401EE0864FF0000920688168C90763
:1022C0000CD0E18F51B1C068A16B0870A06B401CAD
:1022D000A063E08F401EE0874FF00109FEF722FF68
:1022E000C01BB04202D3701C01D011E086B1E08E59
:1022F0000028CED1E08F0028CBD13A463146204687
:1023000001F03DFB50B12020606584F8508012E060
:1023100084F851A084F85080032068E7A06818B9B9
:102320002068C1688068009084F851A084F85080CB
:10233000606D0028F1D0012059E7000070B5044617
:1023400090F8510001281CD1C9B1C2B194F85000D5
:10235000012816D0012084F85000032084F8510091
:10236000002565652163A286E286A5636564256410
:10237000A587E587A068B0F5004F04D00DE00120E7
:1023800070BD022070BD2068016821F0400101602D
:102390002068016841F480410160A16C1748C8625F
:1023A000A16C17488862A16C16480863A06C45634D
:1023B000E38E2268216B0C32A06CFEF76FFD30B10A
:1023C000606D40F01000606584F85050D7E72068D9
:1023D0000168490603D4016841F04001016084F8B6
:1023E00050502068416841F02001416020684168F8
:1023F00041F002014160002070BD00001139000869
:102400001B390008EF3800087047704710B5401EB0
:10241000B0F1807F01D3012010BD4FF0E024606156
:102420000F21601704F0F4FB0020A0610720206159
:10243000002010BD7047704770B590F83C20012A0D
:1024400029D0012480F83C40022280F83D20036816
:102450005A689D6822F070060A6832435A600F4B32
:1024600002689A420BD0B2F1804F08D00C4B9A42CE
:1024700005D00C4B9A4202D00B4B9A4204D14968CA
:1024800025F080031943916080F83D40002180F8D9
:102490003C10084670BD022070BD0000002C0140B9
:1024A0000004004000080040000C004010B504008B
:1024B00003D094F83D0010B107E0012010BD0020CA
:1024C00084F83C00204600F01FF8022084F83D000C
:1024D000211D206801F02CFB012084F8460084F8BF
:1024E0003E0084F83F0084F8400084F8410084F8FE
:1024F000420084F8430084F8440084F8450084F8DE
:102500003D00002010BD000038B5054600681D499B
:10251000B0F1804F2CD01C4A904231D1C86940F0B4
:102520000200C861C8691A4C00F002000090174808
:1025300020601020606000208021C4E90201490071
:1025400021618900C4E90510E0612046FEF768FCBE
:1025500008B1FDF798FF2C632C62002211461D2064
:102560006562FFF729F8BDE838401D20FFF716B86F
:10257000C86940F00100C861C86900F0010000901E
:1025800038BD00000010024000040040300002404E
:10259000AC06002070B5044690F83C0000250128E8
:1025A00017D0012684F83C60022084F83D002068A2
:1025B000826822F0770222F47F4282600868502805
:1025C00038D00DDC20284FD005DC90B3102811D175
:1025D0004AE0022070BD302846D040280AD13BE0B6
:1025E00060282FD070280DD0B0F5805F03D0B0F5F3
:1025F000005F12D0012584F83D60002084F83C0083
:10260000284670BDCB68D1E90121206801F056FB56
:102610002068816841F0770109E0CB68D1E90121A8
:10262000206801F04BFB2068816841F480418160A3
:10263000E1E719E0CA684968206801F0F3FB50211E
:10264000206806E0CA684968206801F0FCFB602148
:10265000206801F03DFBCEE7CA684968206801F0B8
:10266000E1FB40212068F4E7226801461046F0E7CC
:10267000704770472DE9F04104460068C668056957
:102680004FF00007A90713D5B10711D5F91E016155
:1026900001202077206880698007204602D0FFF75C
:1026A000E8FF04E000F0C0F8204600F053F9277777
:1026B000680716D5700714D521686FF0040008610B
:1026C000022020772068806910F4407F204602D0E5
:1026D000FFF7CFFF04E000F0A7F8204600F03AF93A
:1026E0002777280715D5300713D521686FF0080024
:1026F0000861042020772068C0698007204602D046
:10270000FFF7B7FF04E000F08FF8204600F022F951
:102710002777E80616D5F00614D521686FF010006B
:102720000861082020772068C06910F4407F2046A7
:1027300002D0FFF79EFF04E000F076F8204600F09C
:1027400009F92777E80708D0F00706D021686FF06D
:1027500001000861204600F00BFA280608D5300673
:1027600006D521686FF0800008612046FFF762FE01
:10277000680608D5700606D521686FF0400008612C
:10278000204600F0F6F9A8060AD5B00608D521685B
:102790006FF0200008612046BDE8F041FFF74BBE16
:1027A000BDE8F08110B586B0002100910191029141
:1027B00003910368184902221848B3F1804F12D0E0
:1027C000174CA3420DD18B6943F008038B618969D3
:1027D000009201F008010192CDE903216946FEF75C
:1027E000A7FB06B010BD8B6943F008038B618969B4
:1027F000039201F0080104910821CDE90012694615
:10280000FEF796FB0748416821F4407141F0E06112
:1028100041F480714160E4E700100240000C014087
:102820000004004000000140704770B5044690F875
:102830003C0000260D4601280FD0012084F83C0002
:102840006AB1042A1DD0082A2FD00C2A3FD00126B5
:10285000002084F83C00304670BD022070BD206826
:1028600001F03EFA2068816941F008018161206829
:10287000816921F004018161206881692A6911431D
:1028800011E0206801F054FA2068816941F4006188
:1028900081612068816921F480618161206881699A
:1028A0002A6941EA02218161D2E7206801F06CFACD
:1028B0002068C16941F00801C1612068C16921F047
:1028C0000401C1612068C1692A69114311E02068CF
:1028D00001F086FA2068C16941F40061C161206895
:1028E000C16921F48061C1612068C1692A6941EA36
:1028F0000221C161ACE710B5040003D094F83D009B
:1029000010B107E0012010BD002084F83C002046F3
:1029100000F01EF8022084F83D00211D206801F01F
:1029200007F9012084F8460084F83E0084F83F004F
:1029300084F8400084F8410084F8420084F84300A1
:1029400084F8440084F8450084F83D00002010BD60
:10295000704700000C21014800F0D2B86406002046
:10296000704700002DE9F04117460D0004464FF076
:1029700000060CD0042D11D0082D16D094F841007B
:10298000022819D094F84100012818D07CE094F86E
:102990003E00022810D094F83E00F5E794F83F007E
:1029A000022809D094F83F00EEE794F8400002288E
:1029B00002D094F84000E7E70220BDE8F081002F44
:1029C00062D0002B60D04749474ADFF820C102207F
:1029D0004DB1042D18D0082D27D084F841000C2DBE
:1029E00044D001267CE084F83E00606A8162606A1F
:1029F0003946C262606AC0F830C02268606A343208
:102A0000FEF74CFA88BB21E084F83F00A06A81629F
:102A1000A06A3946C262A06AC0F830C02268A06AC3
:102A20003832FEF73BFA00BB15E084F84000E06A5C
:102A30008162E06A3946C262E06AC0F830C022684A
:102A4000E06A3C32FEF72AFA78B909E02068C168EA
:102A500041F400711EE02068C16841F4806119E012
:102A60002068C16841F4006114E00DE0206B8162D0
:102A7000206B3946C262206BC0F830C02268206BE0
:102A80004032FEF70BFA08B1012096E72068C168D2
:102A900041F48051C16001222946206801F08CF880
:102AA00013492068884203D1426C42F400424264D8
:102AB000206888420BD0B0F1804F08D00D49884281
:102AC00005D00D49884202D00C49884204D1816862
:102AD00001F00701062903D0016841F001010160FE
:102AE00030466AE7D33B0008313C0008693C0008E7
:102AF000002C01400004004000080040000C004091
:102B000030B504460D460068002201F055F8174B19
:102B100041F2111120688A10984209D1036A0B42D0
:102B200006D1036A134203D1436C23F40043436488
:102B30002068036A0B4206D1016A114203D1016881
:102B400021F00101016001203DB1042D08D0082DC4
:102B500009D084F84100002030BD84F83E00FAE737
:102B600084F83F00F7E784F84000F4E7002C0140C8
:102B70007047704770477047F8B5016804460868A9
:102B8000CA684B6910F00F0F4FF0000559D003F0E1
:102B9000010602F49077374365D0C10705D0D1050F
:102BA00003D5616C41F001016164410705D5D90786
:102BB00003D0616C41F002016164810705D5D9073A
:102BC00003D0616C41F004016164010707D502F094
:102BD0002001314303D0616C41F008016164616CF4
:102BE00000293AD0800604D5900602D5204601F08F
:102BF000A4F920684069616CC0F38010090700D413
:102C000060B3204601F072F920684069400621D582
:102C10002068143050E8001F21F0400140E8001205
:102C2000002AF5D1E06BA8B16D494163E06BFDF777
:102C300037FF002811D0E06B416B01B0BDE8F040D8
:102C4000084783060FD593060DD52046BDE8F8400A
:102C500001F073B92046FFF78EFFF8BD2046FFF75D
:102C60008AFF6564F8BD266B2023012E7CD1C60641
:102C70007AD5D60678D508684868009048694FF03C
:102C80000206400640D5E16B086840680004000C6D
:102C9000E8D0A28D8242E5D9E085886920282DD030
:102CA00020680C3050E8001F21F4807140E80012C9
:102CB000002AF5D12068143050E8001F21F00101EE
:102CC00040E80012002AF5D12068143050E8001FB7
:102CD00021F0400140E80012002AF5D184F842308A
:102CE000256320680C3050E8001F21F0100140E8F7
:102CF0000012002AF5D1E06BFDF7AEFE6663A08DF1
:102D0000E18D401A81B22AE0A08DE18D401A81B296
:102D1000E08D0028A6D00029A4D022680C3252E809
:102D2000000F20F4907042E80007002FF5D12068D2
:102D3000143050E8002F22F0010240E80027002F55
:102D4000F5D184F84230256320680C3050E8002F1C
:102D500022F0100240E80023002BF5D166632046E4
:102D6000FFF708FFF8BDFFE705062BD5150629D5A7
:102D700094F841002128F5D1A068B0F5805F01D119
:102D80002069B0B1206A411C216221680078486046
:102D9000E08C401E0004000CE084E3D12068C16890
:102DA00021F08001C1602068C16841F04001C1602C
:102DB000D8E7206A0088C0F308004860206A801CB9
:102DC0002062E5E74006CDD55006CBD5CA6820463F
:102DD00022F04002CA6084F8413000F0C6F8C1E732
:102DE000DD3E000870B5040004D094F841000025D1
:102DF00010B106E0012070BD84F84050204600F07C
:102E000023F8242084F841002068C16821F400518F
:102E1000C160204601F0F2F82068016921F4904178
:102E200001612068416921F02A0141612068C1687F
:102E300041F40051C1606564202084F8410084F8A9
:102E400042006563002070BD30B585B00024009459
:102E50000194029403940068184988422BD11848C1
:102E6000C16941F40031C161C16901F400310491CB
:102E7000816941F0040181618069124D00F0040014
:102E800004900420009002200190032003906946E2
:102E90002846FEF74DF80820CDE90004694628468B
:102EA0000294FEF745F8002211462620FEF784FB27
:102EB0002620FEF773FB05B030BD00000044004043
:102EC000001002400008014070472DE9F843044615
:102ED00090F84100984616460D46202802D0022060
:102EE000BDE8F88385B17EB100206064212084F8BC
:102EF0004100FEF717F9A6848146E684A0682027E2
:102F0000B0F5805F02D003E00120E9E7206910B14D
:102F10002E4600250EE000260CE08021204601F020
:102F2000C9F8A8B9C6B116F8010B21684860E08C51
:102F3000401EE084E08C4B464FF00002CDF800804C
:102F40000028EAD14FF04001204601F0B3F840B12B
:102F500084F841700320C3E735F8020BC0F3080082
:102F6000E3E784F841700020BAE770472DE9F05F8D
:102F7000054600680F46064603F0B0FB07EB470125
:102F800040074FF0070A4FF0040905EB011401D583
:102F9000484633E03946286803F0A0FBC0054FF0EF
:102FA000080808D506EB47114FF48070C1F80805F2
:102FB00084F8418028E03946286803F08FFB000739
:102FC00005D506EB4711C1F8088506200CE0394607
:102FD000286803F083FB400509D506EB47114FF441
:102FE0008060C1F80805092084F841000CE03946EA
:102FF000286803F073FB00060AD5802006EB471112
:10300000C1F8080584F841A03946286803F09CF906
:103010003946286803F062FB80052868394604D5E4
:1030200003F092F94FF4007046E003F057FBC0073D
:103030004FF000084FF0010A37D084F841A006EBAA
:103040004716C4F83C805246C6F808A5207F30B128
:10305000022804D003280AD0012808D013E03946FA
:10306000286803F071F91020C6F808050BE0D6F8BF
:10307000000540F00050C6F8000584F840203946AD
:103080002846FEF7C9F8A879012807D1E08B216B03
:103090000144491EB1FBF0F0C00704D014F8340F0E
:1030A00080F001002070BDE8F09F3946286803F0E9
:1030B00015FB800605D5202006EB4711C1F8080551
:1030C000F1E73946286803F009FB80074FF0050B4C
:1030D00050D506EB47120220C2F8080594F84110BB
:1030E000012916D0062919D007291CD009291AD080
:1030F000052931D003292FD0042930D0082931D017
:103100000229D0D094F8402039462846FEF784F8AA
:10311000C9E784F8410084F840A0F3E784F841004F
:1031200084F840B0EEE784F84100E16B491CE163AC
:10313000022902D9C4F83C8019E084F84000207FBD
:1031400008B10228DED1D2F8000520F0804040F01E
:103150000040C2F80005D5E784F84100D2E784F8C2
:103160004100EAE784F84100E06B401CE06384F82A
:103170004090C7E73946286803F0B0FA40060ED5FC
:1031800006EB47114020C1F8080584F841B0C4F8A7
:103190003C8039462868BDE8F05F03F0D5B8394671
:1031A000286803F09BFAC0068AD5207F032802D046
:1031B00008B1022807D1C4F83C8084F84190394610
:1031C000286803F0C1F8102076E72DE9F05F054686
:1031D00000680F46064603F081FA07EB47014007F7
:1031E0004FF004084FF0070A05EB011406D506EB73
:1031F0004711C1F8088584F841A034E039462868B1
:1032000003F06CFA800601D5202041E03946286899
:1032100003F064FA800506D506EB47114FF4007001
:10322000C1F808051FE03946286803F057FAC007BF
:103230004FF000094FF0010B07D006EB4711C4F81F
:103240003C905846C1F808B50BE03946286803F0B1
:1032500045FA00070DD506EB47110820C1F808050F
:10326000062084F8410039462868BDE8F05F03F085
:103270006BB83946286803F031FAC0060ED5C4F899
:103280003C9084F841803946286803F05DF81020AE
:1032900006EB4711C1F80805BDE8F09F39462868DC
:1032A00003F01CFA000607D584F841A039462868C7
:1032B00003F04AF88020EBE73946286803F00EFA5D
:1032C000400509D5092084F841003946286803F0F3
:1032D0003BF84FF48060DBE73946286803F0FEF9DD
:1032E0008007D9D506EB47120220C2F8080594F8EA
:1032F0004110012915D0032937D0042938D00629D7
:1033000039D0072901D00929C6D184F84100E16BE1
:10331000491CE163022934D9C4F83C9084F8408008
:1033200039E084F8410084F840B0207F022801D0C1
:10333000032830D1A87928B994F8350080F001002D
:1033400084F83500A879012825D1E16A19B3E08B0A
:103350000144491EB1FBF0F0C0071CD094F83500C1
:1033600080F0010084F8350015E084F8410012E097
:1033700084F8410002E084F84100052084F8400010
:1033800009E084F84000D2F8000520F0804040F0C9
:103390000040C2F8000594F8402039462846FDF761
:1033A0003BFF79E77CB504680546D4F840040190FA
:1033B000D4F8400420F02E0000900198800709D531
:1033C0000198C00702D02846FDF7B2FE009840F0F1
:1033D000020000900198000724D5009840F00800F2
:1033E0000090019840071AD5687A022803D0E8793E
:1033F00001280CD00FE00198C0F341400228286852
:1034000003D0012103F04EF905E00221FAE74EF660
:103410006020C4F804042846FEF73CF802E0284681
:10342000FEF734F801988006009802D540F020009D
:103430000090C4F840047CBD2DE9F04102460068CC
:103440000646016AC1F3434301F00F07C1F30A15B1
:10345000022B2ED1002D2CD007EB470102EB0114DB
:10346000616A002925D0226BE36A2A449A4222D855
:103470002A4603F03FF9606A28446062206B2844C2
:10348000206306EB4710D0F81015E28BC1F3C94159
:10349000AA420ED100290CD0D0F8001521F08041AD
:1034A00041F00041C0F8001514F8340F80F001001D
:1034B0002070BDE8F081042084F84000F9E7FEE7C1
:1034C00010B500220A490B4804F082F8010007D029
:1034D00009A003F079FB0DA003F076FB72B6FEE7BE
:1034E0000BA000F0C3FCBDE810400AA003F0C2B975
:1034F00007000020B0000020665F6D6F756E7420BD
:103500006572726F723A2025640000000A000000A4
:10351000303A0000303A2F3131312E6D70330000D7
:103520003EB500211D48009101911B4A02910260A5
:103530009215826001240473017503254FF4602203
:103540000561C2614160FDF721F908B1FCF79BFFFD
:103550000420CDE900040720029069460F48FDF7DA
:1035600025F808B1FCF78FFF05200090022001909C
:1035700069460A48FDF71AF808B1FCF784FF0620EF
:10358000CDE9000569460548FDF710F8002801D08F
:10359000FCF779FF3EBD0000002401400C0500202F
:1035A000114808B5416941F00101416140690022BB
:1035B00000F00100009011460B20FDF7FDFF0B20ED
:1035C000FDF7ECFF002211460D20FDF7F5FF0D2061
:1035D000FDF7E4FF002211460F20FDF7EDFFBDE8E7
:1035E00008400F20FDF7DABF0010024010B5044973
:1035F0000448FCF74AFF0249491E087010BD00004C
:1036000007000020688600082DE9F04385B00024FB
:1036100032480094019402940394816941F01001AE
:103620008161816901F010010491816941F02001FB
:103630008161816901F020010491816941F00401F7
:103640008161816901F004010491816941F00801FF
:1036500081618069DFF8889000F008000490002202
:103660004FF45C714846FDF758FDDFF878804FF461
:103670008057002239464046FDF74FFD4FF4B870A1
:1036800001250226CDE90005CDE9024669464846F6
:10369000FDF74EFCCDE90054694640460294FDF723
:1036A00047FC00970396CDE9015469464046FDF773
:1036B0003FFC80208DE8310069464846FDF738FC24
:1036C0006802009001AA112082E85100694648462C
:1036D000FDF72EFC05B0BDE8F083000000100240AD
:1036E00000100140000C0140104810B50E49016067
:1036F0004FF48271416000218160C1604FF400721B
:103700000161C0E905121822C0E907214162816206
:103710000A21C162FEF7B9FB002803D0BDE81040C2
:10372000FCF7B1BE10BD000000380040800500204D
:1037300010B58EB000240794089409940A940B9451
:103740001C2168460C94FCF77BFD1D484FF080411E
:10375000C0E9001441F61F41C0E9024104618461DF
:10376000FEF7A4FE08B1FCF78EFE4FF480500790E0
:1037700007A91348FEF70EFF08B1FCF784FE1048B6
:10378000FFF7B9F808B1FCF77EFE0B940BA90C48C3
:103790000C94FEF751FE08B1FCF775FE6020CDE9F0
:1037A000000402940422694605480494FFF73DF89A
:1037B00008B1FCF768FE0248FEF7F4FF0EB010BD3A
:1037C0001C06002010B58EB00024079408940994BC
:1037D0000A940B941C2168460C94FCF731FD1D489B
:1037E0001B49C0E900145921C0E902410461846108
:1037F000FEF75CFE08B1FCF746FE4FF480500790E0
:1038000007A91448FEF7C6FE08B1FCF73CFE1148B4
:10381000FFF771F808B1FCF736FE0B940BA90D48C1
:103820000C94FEF709FE08B1FCF72DFE6020CDE9EF
:10383000000402940C22694606480494FEF7F5FF42
:1038400008B1FCF720FE0348FEF7ACFF0EB010BD38
:1038500000040040640600200C4810B50A490160CD
:103860004FF4E1314160002181600C22C160C0E968
:1038700004128161C161FFF7B5FA002803D0BDE8E9
:103880001040FCF700BE10BD00440040F0060020D0
:1038900010B501220B490C4800F0BAFF08B1FCF743
:1038A000F2FD0A49084802F0F1FA08B1FCF7EBFD15
:1038B000054802F0CDFB002803D0BDE81040FCF71E
:1038C000E2BD10BD6560000838070020240000201C
:1038D000014802F0F1B8000038070020FEE7FEE7DB
:1038E0000148FDF7E1BC0000080B0020704710B54F
:1038F000406A01684A6822F003024A60416D41F063
:1039000010014165012180F85110FEF7BDFA10BD8C
:1039100010B5406AFEF779FD10BD38B50546446A1A
:10392000FDF700FC024628680068800623D4206862
:10393000416821F0200141602068416821F00201C6
:1039400041606421204600F01AF818B1606D40F023
:1039500020006065A068002118B92068C2688068EE
:103960000090E186012084F85100606D18B1204676
:10397000FEF78AFA38BD2046FEF746FD38BDF8B599
:1039800015460E460B46009204460122022100F025
:1039900011F840B93346002280212046009500F0FE
:1039A00009F8002804D0606D40F020006065032015
:1039B000F8BD00002DE9F8431E46914688460446AE
:1039C000089DFDF7AFFB401B351AFDF7ABFB074623
:1039D00025480068C0F3CB30684338E0701C37D00E
:1039E000FDF7A0FBC01BA84203D215B1009860B33D
:1039F0002CE02068416821F0E00141606068B0F58A
:103A0000827F0BD1A068B0F5004F02D0B0F5806F77
:103A100004D12068016821F040010160A06AB0F57E
:103A2000005F09D12068016821F40051016020681D
:103A3000016841F400510160012084F85100002028
:103A400084F850000320BDE8F8830025401E009054
:103A50002068816838EA010004D000214945BDD1C1
:103A60000020F0E70121F9E718000020704700006E
:103A7000082807D2044B0A0C1A54044B0A0A1A5499
:103A8000034A1154704700007C000020740000209D
:103A900084000020FDF732BD70B59CB03821684627
:103AA000FCF7CEFB142116A8FCF7CAFB20210EA8B8
:103AB000FCF7C6FB012500242804CDE902040226F8
:103AC000CDE908600095059501944FF4E010CDE92B
:103AD0000A046846FDF7E6FF08B172B6FEE70F205C
:103AE000CDE916064FF48060CDE91840022116A8F2
:103AF0001A94FDF7DBFE08B172B6FEE712200E90B5
:103B00004FF40040159410900EA8FDF70BFE08B17D
:103B100072B6FEE7014805671CB070BD0000424266
:103B2000704700000148FEF7A5BD000064060020B4
:103B3000F0B502681C4B1D4C1D4D1E4E4FF08047CA
:103B4000984207D0B84205D0A04203D0A84201D085
:103B5000B04204D122F0700C4A6842EA0C0298424A
:103B600007D0B84205D0A04203D0A84201D0B0424D
:103B700003D122F44074CA6822434C6922F08002C7
:103B8000224302608A68C2620A688262984201D156
:103B900009690163012141610169C90703D0016914
:103BA00021F001010161F0BD002C01400004004042
:103BB00000080040000C004010B501F01F03012177
:103BC000046A99408C430462016A9A40114301627D
:103BD00010BD10B5446A0121626A824205D1217785
:103BE0008069F8B984F83E101CE0A26A824206D1CE
:103BF000022222778069A8B984F83F1012E0E26AB5
:103C0000824206D104222277806958B984F8401094
:103C100008E0226B824205D108222277806908B928
:103C200084F841102046FEF795FE0020207710BD55
:103C300010B5446A616A814201D101200DE0A16A98
:103C4000814201D1022008E0E16A814201D10420D1
:103C500003E0216B814201D1082020772046FEF746
:103C60007FFE0020207710BD10B5446A0121626AF2
:103C7000824203D1217784F83E1019E0A26A824281
:103C800004D10220207784F83F1011E0E26A8242DA
:103C900004D10420207784F8401009E0226B82428E
:103CA00004D10820207784F8411001E084F83D1009
:103CB0002046FEF7DDFC0020207710BD10B584689B
:103CC00042EA032224F47F440A432243826010BD67
:103CD000826822F070020A4342F007018160704757
:103CE00030B5036A026A22F0010202624268846906
:103CF00024F073050C682C4323F002058B682B43DA
:103D00000A4DA8420BD123F00805CB6822F440727B
:103D10002B434D6923F0040315438A692A4342600B
:103D2000846149684163036230BD0000002C01409A
:103D300030B5026A036A23F01003036243688469A2
:103D40000D6824F4E64444EA05248D6822F020023C
:103D500042EA05120B4DA8420ED1CD6822F0800236
:103D600042EA05124D6923F4406343EA85038D69F5
:103D700022F0400243EA850343608461496881631D
:103D8000026230BD002C014030B5036A026A22F4A1
:103D9000807202624268C46923F4007324F07305E0
:103DA0000C682C438D6843EA05230C4DA8420ED1C4
:103DB000CD6823F4006343EA05234D6922F44052A1
:103DC00042EA05128D6923F4806342EA05124260DB
:103DD000C4614968C163036230BD0000002C01402A
:103DE00030B5046A026A22F4805202624268C369F2
:103DF0000D6823F4E64343EA05238D6824F4005458
:103E000044EA0534064DA84204D14D6922F48042AB
:103E100042EA85124260C36149680164046230BDB0
:103E2000002C014010B5036A046A24F00104046206
:103E3000846924F0F00444EA021423F00A020A43DD
:103E40008461026210BD10B5036A046A24F0100494
:103E50000462846923F0A00324F4704444EA02322B
:103E600043EA01118261016210BD000030B5ADF579
:103E7000217D05460146684603F0AEFC002822D1AC
:103E80000DF22D2489A9684603F0B6FDC0B99DF84E
:103E90002D02A8B12E28F5D09DF82C02C00609D518
:103EA00023462A4609A18FA802F09EFE8FA8FFF79D
:103EB000DDFFE7E72246294606A002F085FEE1E79E
:103EC000684603F072FB0DF5217D30BD25732F256B
:103ED0007300000025732F25730A000010B5406A97
:103EE0000021C185C184FEF746FE10BD01680C317A
:103EF00051E8002F22F4907241E80023002BF5D105
:103F00000168143151E8002F22F0010241E800233A
:103F1000002BF5D1016B012909D101680C3151E861
:103F2000002F22F0100241E80023002BF5D12021C0
:103F300080F8421000210163704708B590F84210E4
:103F4000222901D0022008BD82684FF480539A4292
:103F500001D1016921B1816A9A421BD04AB10AE0BC
:103F60000268816A5268C2F308020A80816A891C69
:103F700008E0026972B10268526802F07F020A70BA
:103F8000816A491C8162C18D491E0904090CC185E1
:103F900003D01BE002685268F1E70168CA6822F0AA
:103FA0002002CA600168CA6822F48072CA6001688F
:103FB0004A6922F001024A61202180F84210002162
:103FC0004163026B012A03D0FEF77EFF002008BD8B
:103FD000016301680C3151E8002F22F0100241E822
:103FE0000023002BF5D101680A68D20602D50A68C1
:103FF00049680091818DFEF7BDFDE7E770B5044685
:1040000000680169E26821F44051114301612169AE
:10401000A0680843616908432168CA6841F20C63DB
:104020009A430243CA6020684169A26921F4407141
:10403000114341611E492068884202D1FDF7DCFC32
:1040400001E0FDF7C9FC00EBC00101EB0012606864
:1040500064218000B2FBF0F3B3FBF1F36FF01806BC
:104060007343B2FBF0F5B2FBF0F605EB83053223A8
:1040700003EB0515B5FBF1F5B6FBF1F605F0F00520
:1040800005EB0615B2FBF0F6B2FBF0F0B0FBF1F079
:104090006FF01802504306EB800003EB0010B0FBFA
:1040A000F1F0216800F00F002844886070BD000026
:1040B000003801402DE9F843984617460D4604465E
:1040C000089E24E0701C22D0FDF72CF8A0EB08001D
:1040D000B0421AD8CEB12068C168490717D5802DE3
:1040E00015D0402D13D00168C94309070FD40168CA
:1040F0000025406800902046FFF7F8FE0820606425
:1041000084F840500120BDE8F8830320FBE72068D5
:10411000006835EA000004D00020B842D2D0002068
:10412000F1E70120F9E700000148FEF725BD000096
:10413000F006002010B500224FF6FF7300EB82045A
:10414000B4F8804324040BD49A4207D002F00F0342
:1041500000EB830041F40041C0F88013D0B210BDE1
:10416000521CD2B20B2AE9D31A46F7E77FB51C4698
:10417000012501AE0023009586E80E0002232A46A1
:10418000214600F04CFC04B0002070BD7FB51D46F8
:1041900090F81D33089C03B100240123CDE90031C0
:1041A000CDE9022402230022294600F038FC04B0A5
:1041B000002070BD10B500F063FB002010BD8278B8
:1041C000012A07D102220274012242740022428293
:1041D0008182C2820022114600F00FB87FB51C46D2
:1041E000012501AE0023009586E80E002A462146EF
:1041F00000F015FC04B0002070BD70B5044601202D
:10420000A3780546012B0CD0022B09D1204600F0E3
:1042100015F9002158B1032809D0022800D1A57052
:1042200070BDA160A28125760221A17070BDA5702C
:10423000217670BD7FB51D4690F81D33089C03B1F3
:1042400000240123CDE90031CDE9022400231A46E0
:10425000294600F0E4FB04B0002070BD1FB5002328
:104260001446CDE900310822CDE902231A46214641
:1042700000F0D5FB04B0002010BDFCF747BE0000E5
:1042800070B50546002005F2363500BF00EB80040E
:1042900004EBC00405EB4404E67B0A348E4201D0F3
:1042A000FF2909D1A679964201D0FF2A04D1E479E9
:1042B0009C4206D0FF2B04D0401CC0B20228E5D39C
:1042C000FF2070BD0B2907D200EB8100B0F88013EE
:1042D000C1F30E01C0F880130020704730B4857818
:1042E000029C012D0FD141F080010174062141741F
:1042F00003214282B1EB122F02D140F2094100E0CA
:1043000000218182C482224630BC1946FFF775BF66
:104310000A8803781A440A80017808447047F8B57F
:104320000E4600F11C05009104462B464FF4007226
:104330000021FFF7D3FF070005D13246294604F2DA
:10434000363001F04AFB3846F8BD38B50D460091CD
:10435000044600F58E734FF480720021FFF7BEFF14
:10436000002839D194F81C1184F8241394F81D11F5
:1043700084F82513B4F81E11A4F8261394F820111C
:1043800084F8281394F8211184F8291394F8221141
:1043900084F82A1394F8231184F82B13082D1BD9C1
:1043A000B4F82411A4F82C13B4F82611A4F82E1391
:1043B000B4F82811A4F8301394F82A1184F83213B1
:1043C00094F82B1184F8331394F82C1184F83413D7
:1043D00094F82D1184F8351338BDF8B51C461646EF
:1043E000009341F4407200F58E731D460021FFF7E3
:1043F00075FF002814D16978032911D129788A1E04
:10440000A24200D814460021A2B2AD1C04E06B5CAD
:10441000891C06F8013B89B29142F8D30021317022
:10442000F8BD01004FF0000004D0012901D002299D
:1044300001D0022070470120704700002DE9F84F9D
:104440000125017E04460B26092728464FF0070860
:104450004FF0050A4FF00D090C2919D2DFE801F0E1
:10446000B5060E26313C48606B7C899A627904F16E
:1044700010012046FFF7F2FE022012E0617920468B
:1044800000F051FA012804D0042871D002287FD00E
:104490009BE0207CE18A00F0800021B180283AD1A5
:1044A0000320207691E0802814D02EE0D4F8C003B9
:1044B000E0812379A2892046A168FFF78FFE0420BE
:1044C000EFE72179204600F02EFA012802D00528D6
:1044D00040D056E0277678E000906379A2892046A4
:1044E000A168FFF7A7FED4F8C003E0810620D8E753
:1044F0006179204600F017FA012806D0052807D078
:10450000022808D0042809D05FE084F818805CE015
:104510000C2020761EE084F818A056E0267653E0A2
:104520000022237911462046FFF758FED4F8C00335
:10453000E0810820B5E72179204600F0F4F9012850
:1045400004D0042824D0052804D03EE084F8189034
:1045500000253AE0032538E00090002263791146F7
:104560002046FFF767FED4F8C003E0810A2098E7F1
:104570000EE06179204600F0D6F9012804D0022827
:10458000A8D0042804D020E0002584F818901CE06E
:1045900026761AE0617E491CC9B26176022902D8EA
:1045A0002076A07011E0D4F8CC2306212046904755
:1045B0000025657606A002F007FB07A002F004FBC9
:1045C0000FA002F001FB257002252846BDE8F88FF8
:1045D0004552524F523A2000436F6E74726F6C20F6
:1045E0006572726F723A20446576696365206E6FFA
:1045F0007420726573706F6E64696E6700000000EE
:104600000A0000002DE9FE430126417800250446FA
:10461000374600F58E78082956D2DFE801F0040FFE
:1046200027565E68788F08212046FFF78EFE002807
:104630004AD194F82B03A07167702CE01221204618
:10464000FFF783FE0028F3D1B4F82E1347A002F041
:10465000BBFA49A002F0B8FAB4F82C1347A002F054
:10466000B3FA45A002F0B0FA02203EE00121204654
:1046700001F0C4FC002872D10220FFF7FEFD39468C
:1046800084F81C7340A002F09FFA3BA002F09CFA51
:1046900003206070A07994F81D130091CDE90150BA
:1046A00094F81C3321798022204601F08CF9A079FE
:1046B00094F81D130091CDE9015094F81C336179F1
:1046C0000022204601F07FF949E009212046FFF74A
:1046D00026FE002843D1042007E0B4F83813204612
:1046E000FFF71DFE00283AD10520607037E094F8EE
:1046F0003213062549B1FF2342462046FFF76DFEDF
:1047000000282CD1414626A00DE02AA013E094F801
:104710003313072571B1FF2342462046FFF75DFEA4
:10472000E8B9414628A002F04FFA13A002F04CFA73
:10473000657014E028A002F047FAF6E794F8341305
:1047400081B1FF2342462046FFF747FE38B9414674
:1047500025A002F039FA08A002F036FA0026304609
:10476000BDE8FE8325A002F02FFAF4E75049443A51
:1047700020257868000000000A0000005649443AED
:10478000202578680000000041646472657373201E
:1047900028232564292061737369676E65642E0080
:1047A0004D616E756661637475726572203A20257D
:1047B000730000004D616E75666163747572657299
:1047C000203A204E2F41000050726F6475637420B0
:1047D0003A2025730000000050726F6475637420E6
:1047E0003A204E2F4100000053657269616C204EE3
:1047F000756D626572203A202573000053657269F9
:10480000616C204E756D626572203A204E2F41001A
:1048100070B50E46040018D084F8C4230025C4F8EF
:104820007853C4F87C53FBF709FE84F8215384F8CD
:104830001E5384F81F5384F820530EB1C4F8CC6380
:10484000204600F083F8002070BD05A002F0BCF9FE
:1048500005A002F0B9F909A002F0B6F9022070BD76
:104860004552524F523A2000496E76616C6964207D
:10487000486F73742068616E646C65000A00000004
:1048800010B5D0F8C803FCF777FCBDE81040FFF77F
:10489000C8BD012180F81E13002180F81F1380F885
:1048A00020130846704710B50446012084F81F0302
:1048B000002084F81E0384F82103204600F0A6F8A7
:1048C00021792046FFF7FEFC61792046FFF7FAFCCC
:1048D000002010BD10B5C820FCF718FB002010BD4B
:1048E000D0F8C803FCF742BC10B50124D0F8C803C7
:1048F000FCF729FC20B1012805D0022803D101E0F2
:10490000002400E00224204610BDD0F8C80301EBCB
:10491000410100EB0110C17D11B190F834007047E6
:1049200090F835007047D0F8C803FCF718BCD0F8F1
:10493000C013491CC0F8C01301780B2905D1D0F869
:104940007813002901D089690847704710B50446DB
:1049500090F8C40301281BD10E484FF0A041C0F8C5
:104960001C43C4F8C8030160082141710121C171D1
:104970000221417200218172FCF737FD08B1FBF77B
:1049800082FD0448FCF7DCFB0146204600F023F8DA
:10499000002010BD080B0020FEB508AF97E870009E
:1049A0008DE87000D0F8C803FCF7F8FBBDE8FE40C6
:1049B000FFF737BD002180F821137047012180F8EF
:1049C0002113704710B5D0F8C803FCF767FDBDE8A8
:1049D0001040FFF726BDC0F8C0137047D0F8C803D9
:1049E00001EB410100EB0110C17D11B180F83420D1
:1049F00001E080F835200020704710B5D0F8C803DA
:104A0000FCF753FDBDE81040FFF70BBD10B5D0F823
:104A1000C803FCF760FDBDE81040FFF702BD2DE9BB
:104A2000FF410DF1280898E8F0008DE8F000D0F87B
:104A3000C803FCF7F2FB04B0BDE8F041FFF7F1BC9E
:104A400003460220D3F87813C9692AB1012A05D197
:104A500089791846FFF7B3BBC979FAE770470000B8
:104A6000D0F878030549C069416505498165012190
:104A700000F8501F817000207047000055534243DA
:104A8000504030202DE9F84F0746D0F87803012632
:104A90003546C4694FF00B0A4FF00A0B94F85000EA
:104AA0004FF009094FF007080C2845D2DFE800F065
:104AB000D20611252E4852757EA7AFCB84F861101F
:104AC000022084F85000009563791F2204F15401FC
:104AD00059E061793846FFF726FF012802D0022805
:104AE0007ED03FE0E06D002829D094F860000006F9
:104AF00001D503204BE0052049E02379628938463F
:104B0000D4F88C10FFF732FB042040E021793846BE
:104B1000FFF709FF01284FD16289E06D90420CD95F
:104B2000D4F88C10801A1144C4F88C10E0656BD056
:104B300023793846FFF71AFB8CE00020E06563E03C
:104B40000095637922893846D4F88C10FFF71EFB54
:104B500006201CE061793846FFF7E5FE012804D005
:104B60000228C8D0052815D074E02289E06D904253
:104B7000E3D9D4F88C10801A1144C4F88C10E06585
:104B800042D0009563793846FFF700FB62E084F875
:104B900050005FE084F850B05CE023790D2204F10E
:104BA00078013846FFF7E2FA0820F0E72179384625
:104BB000FFF7B9FE012802D005281DD04AE004F80D
:104BC000505F3846A570D7F87813CC692179FFF784
:104BD00087FE0D280CD12149A06F884208D100E042
:104BE00036E0A16DE06F884202D194F8840008B1EC
:104BF00002262FE000262DE084F850902AE00022C3
:104C00003846FFF71DFF38B984F8508022E00122B2
:104C10003846FFF715FF10B1042811D01AE061796A
:104C20003846FFF772FEC0F10100C2B26179384622
:104C3000FFF7D4FE217900223846FFF7CFFEDBE7ED
:104C400084F850A006E0384600F015F8060001D1BF
:104C500084F850503046BDE8F88F00005553425359
:104C6000A1220274FE224274002242828282012228
:104C7000C282FFF7C2BA21210174FF2141740021D1
:104C800041828182C1820A46FFF7B7BA70B5D0F877
:104C900078130125CC69A17B21B1022902D0032917
:104CA00032D12BE02146FFF7DBFF00260546032823
:104CB00001D015B128E0002526602178022901D90C
:104CC000022100E0491C11A0216001F07DFF17A026
:104CD00001F07AFF002002220CE000BF00EB80010F
:104CE00001EBC00104EB8101401C81F8922081F8A6
:104CF000C160C0B221688142F0D805E00021FFF711
:104D00005EFA08B9E07BA073284670BD4E756D62EF
:104D10006572206F6620737570706F7274656420A1
:104D20004C554E3A20256C75000000000A0000002A
:104D300010B51446D0F878230078D3690B2801D039
:104D4000022010BD01EB810000EBC10003EB8001EC
:104D5000342220469031FBF75AFA002010BD70B57E
:104D60000546D0F878030026C469617939B1284630
:104D7000FFF720FA61792846FFF7A4FA66712179D6
:104D800039B12846FFF716FA21792846FFF79AFA33
:104D90002671D5F87803C06920B103F08DF8D5F8F5
:104DA0007803C661002070BDFEB50546D0F87803D3
:104DB0005023062201792846FFF762FA0646FF28AB
:104DC00001D0022E09D340A001F0FEFED5F87803F1
:104DD000016840A001F0F8FE29E00146284601F0F4
:104DE00093F808B10220FEBD4FF48077384603F0F7
:104DF000F1F9D5F878130446C861200011D039467E
:104E0000FBF71EFA06EB860000EBC60005EB400040
:104E100090F84C130A060ED5E171B0F84E1361817B
:104E20000DE029A001F0D0FE34A001F0CDFE3DA0A0
:104E300001F0CAFED6E7A171B0F84E13218190F8B7
:104E400054130A0604D5E171B0F85603608103E0FB
:104E5000A171B0F856032081002020736073A07305
:104E6000A1792846FFF766F96071E1792846FFF7D6
:104E700061F920712846FFF7F3FD208995F81D138D
:104E800002260091CDE9016095F81C33A279617981
:104E9000284600F098FD608995F81D130091CDE932
:104EA000016095F81C33E2792179284600F08BFDEA
:104EB000217900222846FFF791FD617900222846DA
:104EC000FFF78CFD0020FEBD4445425547203A20A7
:104ED0000000000043616E6E6F742046696E6420AE
:104EE00074686520696E7465726661636520666FBB
:104EF0007220257320636C6173732E0043616E6EA4
:104F00006F7420616C6C6F63617465206D656D6F8B
:104F1000727920666F72204D53432048616E646C35
:104F2000650000000A0000002DE9F0470746D0F8B0
:104F300078034FF0010AC469207B10B101283BD1EE
:104F4000DFE1B4F8F800216801254FF0000888423D
:104F500070D200EB800101EBC00004EB8000022660
:104F600080F89150B4F8F8104FF0050901EB81007A
:104F700000EBC10004EB800292F8900009281BD2DC
:104F8000DFE800F0051A5CD11BFA1A1AF900DFA05D
:104F900001F01AFEE0A001F017FEB4F8F8100420AA
:104FA00001EB810202EBC10104EB810181F8900069
:104FB000D7F8C003C4F8FC00A5E1C9B238469F3257
:104FC00000F011FB002836D1B4F8F80000EB8001A6
:104FD00001EBC00004EB8001D0A0A23101F0F4FD90
:104FE000CDA001F0F1FDB4F8F80000EB800101EB79
:104FF000C00004EB8001CFA0AB3101F0E5FDC6A0FD
:1050000001F0E2FDB4F8F80000EB800101EBC00014
:1050100004EB8001CDA0BC3101F0D6FDBEA001F0B3
:10502000D3FDB4F8F80000EB800101EBC00004EB05
:105030008000FAE05CE1022874D0DCE0C9B23846B6
:1050400000F001FC10B1022836D0D4E0B4F8F8002A
:1050500000EB800101EBC00004EB800090F892109F
:1050600041B180F8C150BFA001F0AEFDAAA001F08F
:10507000ABFD01E080F8C180B4F8F820032002EB1A
:10508000820101EBC20104EB810181F89000B4F8C8
:10509000F81001EB810202EBC10104EB810181F800
:1050A0009180B4F8F81001EB810202EBC10104EB2E
:1050B000810181F8928026E1B4F8F80000EB8001CC
:1050C00001EBC00004EB800090F89210022908D098
:1050D00080F8C150A8A001F077FD8FA001F074FD09
:1050E00001E080F8C180B4F8F81001EB810202EB16
:1050F000C10104EB810181F89090B4F8F80000EB55
:10510000800101EBC00004EB800080F89150B4F8FE
:10511000F80000EB800101EBC00004EB800080F898
:105120009260F0E054E0C9B23846943200F005FBDA
:10513000002880D1B4F8F80000EB800101EBC0003A
:1051400004EB800090F8C11001292CD150F8941F75
:10515000808841438EA001F037FD6FA001F034FD3F
:10516000B4F8F80000EB800101EBC00004EB800014
:10517000D0F8941001E0B7E035E08DA001F024FDF7
:1051800065A001F021FDB4F8F80000EB800101EB0F
:10519000C00004EB8000B0F898108AA001F014FD64
:1051A0005DA001F011FDB4F8F80000EB800101EB07
:1051B000C00004EB800080F89050B4F8F81001EBC8
:1051C000810202EBC10104EB810181F891805FE073
:1051D000B4F8F81001EB810202EBC10104EB81018C
:1051E00081F890908FE0C9B238469C3200F0E2FA24
:1051F00020B1022851D0042861D084E0B4F8F8002E
:1052000000EB800101EBC00004EB800090F89C10E3
:10521000062901D002290BD1D7F8C023D4F8FC30DD
:10522000D21A42F210739A4202D280F890606AE079
:1052300069A001F0C9FC38A001F0C6FCB4F8F80080
:1052400000EB800101EBC00004EB800090F89D10A2
:1052500065A001F0B9FC30A001F0B6FCB4F8F8008C
:1052600000EB800101EBC00004EB800090F89E1081
:1052700064A001F0A9FC28A001F0A6FCB4F8F80095
:1052800000EB800101EBC00004EB800080F890503F
:1052900034F8F80F401C208035E037A001F094FC72
:1052A0001DA001F091FCB4F8F810082001EB810278
:1052B00002EBC10104EB810181F8900023E0B4F816
:1052C000F80000EB800101EBC00004EB800080F8E7
:1052D0009050B4F8F80000EB800101EBC00004EB43
:1052E000800080F891600EE0491CA4F8F8100AE0F4
:1052F000A4F8F8802573D7F8CC23022138469047CC
:1053000001E04FF0000A5046BDE8F0874C554E20B2
:105310002325643A200000000A000000496E7175E0
:105320006972792056656E646F7220203A20257369
:1053300000000000496E71756972792050726F64C7
:10534000756374203A20257300000000496E717562
:105350006972792056657273696F6E203A202573E1
:10536000000000004D534320446576696365207258
:1053700065616479000000004D53432044657669FF
:105380006365204E4F54207265616479000000000F
:105390004D534320446576696365206361706163A2
:1053A000697479203A20256C752042797465730000
:1053B000426C6F636B206E756D626572203A2025BA
:1053C0006C750000426C6F636B2053697A65202016
:1053D000203A20256C75000053656E7365204B657F
:1053E0007920203A202578004164646974696F6EE1
:1053F000616C2053656E736520436F6465203A20AD
:10540000257800004164646974696F6E616C205393
:10541000656E736520436F6465205175616C6966C4
:105420006965723A202578002DE9F843D0F8782391
:1054300001EB810303EBC103D269012502EB830475
:10544000082794F890302E46052B22D000224FF0EA
:105450000508062B02D0072B40D10CE00023009258
:105460001A4600F02AF90BE002280FD018E000BF1E
:1054700084F8907031E0002300921A4600F009FA97
:105480000028F1D184F89060002527E084F890800E
:1054900024E004F19C0200F08DF920B1022820D014
:1054A0000428E5D01AE094F89C1011A0903401F083
:1054B0008BFB13A001F088FB617B12A001F084FB41
:1054C0000FA001F081FBA17B15A001F07DFB0CA0DA
:1054D00001F07AFB26700220607002252846BDE8A4
:1054E000F88318A001F070FB05A001F06DFBF5E753
:1054F00053656E7365204B657920203A202578002E
:105500000A0000004164646974696F6E616C205325
:10551000656E736520436F6465203A20257800002E
:105520004164646974696F6E616C2053656E736564
:1055300020436F6465205175616C69666965723AD4
:10554000202578004D534320446576696365204EDD
:105550004F54207265616479000000002DE9F84322
:105560000446D0F87803089E0F46C56994F81E03D8
:1055700060B120780B2809D107EB870000EBC7004A
:1055800005EB800090F89010012902D00220BDE8C0
:10559000F8830621297380F89010A5F8FA7039462F
:1055A0002046009600F089F8D4F8C08340F27120BC
:1055B0004FF00109464309E0D4F8C013A1EB0800FD
:1055C000B0EB061F0CD894F81E0348B139462046AC
:1055D000FFF72AFF0128EFD085F80C900020D6E7CE
:1055E00085F80C90D2E72DE9F0411546D0F87823E4
:1055F00002270026D4694FF0010894F85220012AAE
:1056000002D0022A56D126E024208022E06584F8C8
:1056100060200A2284F86220C4F86360C4F86760DE
:10562000A4F86B60122284F86320490184F86410A6
:1056300084F8656084F8666084F8670084F86860C0
:10564000022084F8508084F8520004F110000127F1
:10565000C4F88C002EE0FFF715FA07002AD12221AA
:105660002846FAF7EDFDD4F88C00007800F01F0012
:105670006870D4F88C00007840092870D4F88C0049
:105680004078000602D585F8028000E0AE7054F83C
:105690008C0F10228168C5F80310C068C5F8070098
:1056A000216805F10C001031FAF7B1FD2068006A9D
:1056B000C5F81D003846BDE8F0812DE9F0411546DA
:1056C00002461F46D2F878330220069EDC6994F821
:1056D0005230012B06D0022B2DD1BDE8F0411046EF
:1056E000FFF7D0B9B4F8980010217043E06580202E
:1056F00084F860000A2084F8620004F16300FAF77D
:105700009FFD282084F86300280E84F86500280C8B
:1057100084F86600280A84F8670084F86850300A24
:1057200084F86A0084F86B60012004F8500F0220AE
:10573000A0700120E763BDE8F08170B51646D0F88F
:1057400078230125D46994F85220012A02D0022A34
:105750002ED11AE00820E065802084F860000A203D
:1057600084F86200102104F16300FAF769FD252036
:1057700084F86300012084F85000022084F852006D
:1057800004F11000C4F88C0012E0FFF77BF905006B
:105790000ED154F88C0F4188427849BA007862F3F0
:1057A0001F4141EA006030602068C08840BAB08084
:1057B000284670BD70B5154602460E46D2F87813DD
:1057C0000220CC6994F85210012914D0022911D179
:1057D00031461046FFF756F900280BD154F88C1FBC
:1057E000897801F00F0129702168097B69702168AF
:1057F000497BA97070BD0E258020E56584F86000A6
:105800000A2084F86200102104F16300FAF718FD01
:10581000032084F86300700184F86400002084F899
:10582000650084F8660084F8675084F868000120F9
:1058300084F85000022084F8520004F11000C4F8EB
:105840008C00012070BD70B502460220D2F878337A
:10585000DC6994F85230012B06D0022B18D1BDE838
:1058600070401046FFF70EB90025E56584F86050DA
:105870000A2084F86200102104F16300FAF7E0FCCA
:1058800084F86350012004F8500F0220A07001201A
:1058900070BD2DE9F041154602461F46D2F8783317
:1058A0000220069EDC6994F85230012B06D0022BB0
:1058B0002DD1BDE8F0411046FFF7E4B8B4F89800E8
:1058C00010217043E065002084F860000A2084F80D
:1058D000620004F16300FAF7B3FC2A2084F8630045
:1058E000280E84F86500280C84F86600280A84F8DD
:1058F000670084F86850300A84F86A0084F86B60A6
:10590000012004F8500F0220A0700120E763BDE8D9
:10591000F08100207047D0F878230078D2690B28F6
:1059200008D101EB810000EBC10002EB800090F890
:10593000910008B100207047012070472DE9F8431D
:105940000446D0F87803089E0F46C56994F81E03F4
:1059500060B120780B2809D107EB870000EBC70066
:1059600005EB800090F89010012902D00220BDE8DC
:10597000F8830721297380F89010A5F8FA7039464A
:1059800020460096FFF785FFD4F8C08340F27120CF
:105990004FF00109464309E0D4F8C013A1EB080019
:1059A000B0EB061F0CD894F81E0348B139462046C8
:1059B000FFF73AFD0128EFD085F80C900020D6E7DC
:1059C00085F80C90D2E7FEB508AF97E870008DE837
:1059D0007000FEF7E1FF0020FEBD2DE9F84105460D
:1059E0000B782B704B786B704B886B800B792B711D
:1059F0004B796B718B79AB71CB790846EB710027D2
:105A0000097A2972092A54D90921ADF800104BE00E
:105A10006946FEF77DFC4178042943D107EB8701F5
:105A200001EBC70105EB4108017888F80A104178BD
:105A300088F80B10817888F80C10C17888F80D1060
:105A4000017988F80E10417988F80F10817988F86B
:105A50001010C17908F10A0488F81110017A217236
:105A6000002615E06946FEF753FC417805290FD161
:105A700008EBC60102780A7542784A7582788A7501
:105A8000C278CA7582880A838279761C8A76F6B2D1
:105A90002179B14204D96A88BDF800108A42E1D860
:105AA0007F1CFFB2022F04D26988BDF8002091420A
:105AB000AED8BDE8F88100002DE9FE430227044678
:105AC0008DF8007094F81F130020012901D10321E3
:105AD000217021780D2600254FF008080C2919D2D5
