:020000040800F2
:100000004064002001020008133B0008C3360008CA
:10001000113B000881040008B56C000800000000D6
:10002000000000000000000000000000690100085E
:100030001D05000800000000AD0100080D3D00088E
:100040001B0200081B0200081B0200081B0200081C
:100050001B0200081B0200081B0200081B0200080C
:100060001B0200081B0200081B0200088504000890
:100070001B020008910400081B0200089D040008F0
:100080001B0200081B020008310300081B020008C5
:100090001B0200081B0200081B0200081B020008CC
:1000A0001B0200081B0200081B0200081B020008BC
:1000B0001B020008C53D00081B0200081B020008C7
:1000C0001B0200081B0200081B0200081B0200089C
:1000D0001B0200081B020008CD4300081B02000899
:1000E0001B0200081B0200081B02000800000000A1
:1000F0000000000000000000000000000000000000
:1001000000000000000000001B0200081B020008A5
:100110001B0200081B0200081B020008D13D00085A
:100120001B0200081B0200081B0200081B0200083B
:100130001B02000800000000000000001B02000875
:100140001B0200081B0200081B020008153B0008E8
:10015000DFF810D000F0DAF8004800477D8600088C
:10016000AFF3008040640020224B19680868B0E8B3
:10017000F00F80F30988BFF36F8F4FF0000080F31A
:1001800011884EF00D0E7047000000000648006810
:10019000006880F3088862B661B6BFF34F8FBFF383
:1001A0006F8F00DF00BF00BF08ED00E0EFF30980B4
:1001B000BFF36F8F0F4B1A6820E9F00F106008B57E
:1001C0004FF0500080F31188BFF34F8FBFF36F8F54
:1001D00009F08CFA4FF0000080F31188BDE8084068
:1001E00019680868B0E8F00F80F30988BFF36F8FD3
:1001F000704700BFB0000020EFF30580704700009B
:100200000648804706480047FEE7FEE7FEE7FEE7B0
:10021000FEE7FEE7FEE7FEE7FEE7FEE7C13D00087A
:10022000510100082DE9F05F0546002092469B46EB
:1002300088460646814640241BE0284641464746FC
:10024000224600F020F853465A46C01A914110D376
:1002500011461846224600F04AF82D1A67EB0108AD
:100260004F4622460120002100F041F817EB00091B
:100270004E41201EA4F10104DFDC484631462A46E7
:100280004346BDE8F09F202A04DB203A21FA02F021
:100290000021704721FA02F3D040C2F120029140C0
:1002A00008431946704740EA01039B0703D009E061
:1002B00008C9121F08C0042AFAD203E011F8013B52
:1002C00000F8013B521EF9D27047D2B201E000F8AB
:1002D000012B491EFBD270470022F6E710B51346EA
:1002E0000A4604461946FFF7F0FF204610BD202AB3
:1002F00004DB203A00FA02F1002070479140C2F17D
:10030000200320FA03F3194390407047064C074D31
:1003100006E0E06840F0010394E8070098471034D5
:10032000AC42F6D3FFF718FF4CA500086CA50008F7
:10033000014800F008BA0000D007002070B504465C
:1003400000688168C943C90717D1816821F001019C
:10035000816000F033FF05460AE000BF00F02EFF89
:10036000401B022804D920688068C043C00706D01B
:1003700020688068C043C007F0D0002070BDA06A2C
:1003800040F01000A062E06A40F00100E06201204D
:1003900070BD10B50146406A826A12F0500F05D058
:1003A000006A026BBDE8104008461047816A41F4BC
:1003B0000071816201688968C1F3424107290CD14B
:1003C000017B51B9816A21F480718162816AC9041B
:1003D00003D4816A41F00101816200F0B1F910BDDE
:1003E00010B5406A816A41F040018162C16A41F002
:1003F0000401C16200F0A6F910BD10B5406A00F01A
:10040000A0F910BDF8B50026044600960068816882
:10041000C943C9072DD0816841F0010181601648A8
:1004200016490068B0FBF1F000E0401E0090002883
:10043000FBD100F0C3FE054616E000BF00F0BEFE93
:10044000401B022810D920688068C043C0070BD029
:10045000A06A40F01000A062E06A40F00100E06293
:1004600084F824600120F8BD20688068C043C0077C
:10047000E4D10020F8BD00002400002040420F001D
:10048000FEE70000014800F0F3BB00000008002078
:10049000014800F0EDBB000070090020014800F0A9
:1004A000E7BB00009C08002030B590F840500124C4
:1004B000AC40C56B6C60046863604368102B0368D4
:1004C00003D099600068C26030BD9A600068C16066
:1004D00030BD000010B500224FEA020100EB82039C
:1004E000521CC3F880130F2AF8D300224FF4007374
:1004F0008418521C84F81C119A42F9D3017041707F
:1005000001228270C0F8C0130276402383714176C5
:1005100080F81C1380F81D23002010BD704772B6B0
:10052000FEE70022AFF3008030B50E4B05460120F8
:100530005C7A012C15D8587A00241C54587A03EBA5
:10054000800045605D7A03F108002A54587A421C05
:100550005A72303008703A2048702F208870CC7062
:10056000002030BD7C110020F8B500250446009520
:1005700090F8240001280BD0012084F824002046A4
:10058000FFF7DCFE2046FFF73DFF060002D050E0FB
:100590000220F8BDA06A20F4885040F00200A0625A
:1005A000022001F0D3F825490968B1FBF0F04000C2
:1005B00000E0401E00900028FBD12068816841F0D7
:1005C0000801816000F0FAFD074608E000F0F6FD42
:1005D000C01B0A2803D920688068000715D420684A
:1005E00080680007F2D42068816841F004018160CE
:1005F00000F0E4FD074612E000F0E0FDC01B0A2811
:100600000DD920688068400709D5A06A20F0020053
:1006100040F01000A06284F824500120F8BD20684A
:1006200080684007E8D4A06A20F0020040F0010092
:10063000A06284F824503046F8BD00002400002059
:1006400070470000F8B50024009490F82420254657
:10065000012A12D0012280F824204A681F23072A89
:100660000DD20668776B521E02EB820293409F43C5
:100670000B6893401F43776319E00220F8BD0668BA
:100680000D2A0AD2376BD21F02EB820293409F439E
:100690000B6893401F43376309E0F76A0D3A02EB9A
:1006A000820293409F430B6893401F43F7620A689E
:1006B000072306680A2A0AD3F7680A3A02EB4202BD
:1006C00093409F438B6893401F43F76008E037696E
:1006D00002EB420293409F438B6893401F43376174
:1006E0000A68102A01D0112A20D1124B02689A42BE
:1006F00017D193681B0219D4936843F400039360E5
:100700000968102912D10C490C4A0968B1FBF2F1B1
:1007100001EB8101490000E0491E00910029FBD155
:1007200004E0816A41F020018162012480F82450B4
:100730002046F8BD002401402400002040420F0064
:1007400070477047704770B5044600680668456892
:10075000A90625D5B10723D5A16AC90603D4A16A84
:1007600041F40071A1628168C1F34241072910D1AF
:10077000217B71B9416821F020014160A06A20F419
:100780008070A062A06AC00403D4A06A40F0010097
:10079000A0622046FFF7D4FF21686FF012000860C6
:1007A00028062ED570072CD5A06AC00603D4A06AEF
:1007B00040F40050A06220688168C1F3023107292B
:1007C00009D04168490515D48168C1F34241072920
:1007D00010D1217B71B9416821F080014160A06A8C
:1007E00020F48050A062A06AC00503D4A06A40F043
:1007F0000100A0622046FFF723FF21686FF00C0084
:10080000086068060CD5F0070AD0A06A40F4803072
:10081000A062204600F094F821686FF001000860A3
:1008200070BD00002DE9F0414FF0000704003D4687
:100830007ED0A06A002628B9E66284F824602046AB
:1008400000F080F82046FFF779FDA16AC90600D4C0
:1008500020B1A06A40F01000A06269E0A16A21F412
:10086000885141F00201A1626268E169237B0A4379
:1008700047EA43010A43A1684FF48077B94209D09F
:10088000012907D05FF0000194F814C0BCF1010FFA
:1008900002D00AE03946F7E7F3B1A36A43F0200338
:1008A000A362E36A43F00103E3622368D3F804C060
:1008B0002CF4694C4CEA010CC3F804C021688B6825
:1008C000DFF870C003EA0C0313438B60A168B942E0
:1008D0000BD0012909D00CE0DFF85CC0A3690CEB58
:1008E00043330B4343F40061DFE7218A0D05A5F58F
:1008F00080152168CB6A23F470032B43CB622168F7
:1009000089680E4B1940914208D1E662A16A21F034
:10091000020141F00101A162BDE8F081A06A20F06E
:10092000020040F01000A062E06A40F00100E062C6
:100930000120F1E7FDF7E1FF00E0FFFFFE0E1FFFE2
:100940007047000070B586B00025064600950195F9
:100950000295039500681E49884236D11D49886971
:1009600040F400708861886900F400700490886920
:1009700040F0040088618869694600F00400049032
:100980007020009003200190134800F01DFB144CD0
:100990001248C4E900058020C4E9025040002061EB
:1009A000800060612020C4E90605204600F084FA3A
:1009B00008B1FFF7B4FD34620022052112206662FF
:1009C00000F092FE122000F081FE06B070BD000023
:1009D00000240140001002400008014008000240CD
:1009E000000800202DE9F047894604463B4900688D
:1009F0003B4F0E1D9046884201D0B84207D1306867
:100A000010F4702F03D001252846BDE8F08794F834
:100A1000240001280CD0012084F824002046FFF790
:100A2000F1FC05004FF0000004D084F82400EBE74F
:100A30000220EAE7A16A40F60162914341F4807125
:100A4000A1622168B94218D1326812F4702F14D013
:100A5000A16A41F48011A1623168490505D5A16AF6
:100A600021F4005141F48051A162A16AC9040AD560
:100A7000E16A21F00601E16206E0A26A22F4801236
:100A8000A2624968E9E7E06284F82400216A154817
:100A90008862216A1448C862216A14480863216880
:100AA0006FF0020008602068816841F48071816005
:100AB000216843464A464C31206A00F03BFA2068E0
:100AC0008168C1F342410729816803D041F4801154
:100AD000816099E741F4A001FAE700000024014099
:100AE0000028014093030008FB030008E10300080D
:100AF00010B590F821100022022905D0042181634D
:100B000080F82020012010BD01680B6823F00E033F
:100B10000B6001680B6823F001030B6090F8403014
:100B2000C46B012101FA03F3636080F8211080F89F
:100B30002020104610BD00002DE9F05F90F8211034
:100B40000024022903D004218163012485E0016887
:100B50000A6822F00E020A6001680A6822F00102A7
:100B60000A603F4E3E4FB215DFF8F4C0DFF8F09058
:100B7000DFF8ECA0DFF8E8B0DFF8E4E00168783FE8
:100B800013011502ACF1640CA9F15009AAF13C0A59
:100B9000ABF1280BAEF1140E4FF48018B14227D9F7
:100BA000B9420ED0614512D049451DD0514518D0EB
:100BB000594518D0714501D1424615E0294EB14240
:100BC00001D1012210E0274E1436B14201D110228A
:100BD0000AE0244E2836B14206D0224A3C329142E5
:100BE00001D11A4600E02A461E49091F0A602BE07F
:100BF000B94213D0614517D0494522D051451DD087
:100C000059451DD0714501D142461AE0B14202D189
:100C10004FF0807215E0134EB14201D1012210E075
:100C2000104E1436B14201D110220AE00D4E283682
:100C3000B14206D00B4A3C32914201D11A4600E043
:100C40002A46074980394A60012180F82110002195
:100C500080F82010416B01B188472046BDE8F09F25
:100C6000800002400804024090F821007047000014
:100C70002DE9F05FC16B0A6801680B68046C4FF0E6
:100C8000040808FA04F8844D844E854FDFF814C236
:100C9000DFF81492DFF814A2DFF814B2DFF814E2E0
:100CA00018EA020F65D05FEA437862D50A689206B7
:100CB00003D40A6822F004020A60DFF8F0814FF4DE
:100CC0008062016808F1140813011402414524D917
:100CD000A9420DD0B1420FD0B9421AD0614515D00A
:100CE000494515D0514501D1120312E0594501D1B2
:100CF00004220EE0714501D140220AE06D4D143509
:100D0000A94206D06B4A2832914201D11A4600E02E
:100D100022466749091F0A6029E0A94213D0B1425F
:100D200015D0B94220D061451BD049451BD0514553
:100D300002D14FF4800217E0414502D14FF08062AA
:100D400012E0594501D104220EE0714501D1402243
:100D50000AE0584D1435A94206D0564A283291422D
:100D600001D11A4600E022464B4908394A60C16A5F
:100D700071E04FF0020808FA04F818EA020F70D088
:100D80005FEA83786DD50A68920606D40A6822F075
:100D90000A020A60012180F82110DFF810814FF467
:100DA0000072016808F1140813011402414524D9A6
:100DB000A9420DD0B1420FD0B9421AD0614515D029
:100DC000494515D0514501D1120312E0594501D1D1
:100DD00002220EE0714501D120220AE0354D143582
:100DE000A94206D0334A2832914201D11A4600E086
:100DF00022462F49091F0A6029E0A94213D0B142B7
:100E000015D0B94220D061451BD049451BD0514572
:100E100002D14FF4001217E0414502D14FF00072A9
:100E200012E0594501D102220EE0714501D1202284
:100E30000AE0204D1435A94206D01E4A28329142BC
:100E400001D11A4600E02246134908394A600021C0
:100E500080F82010816A00291CD0BDE8F05F0847A7
:100E6000FFE70825A540154214D01A0712D50A68D5
:100E700022F00E020A6090F84020C36B012101FAB3
:100E800002F25A60816380F82110002180F820105E
:100E9000016BE0E7BDE8F09F080002401C00024043
:100EA0003000024044000240580002406C00024002
:100EB000080402401C04024030B560B11A4B0268BD
:100EC00014219A4209D2194B1344B3FBF1F1890062
:100ED000016417490AE0012030BD134B5B42134403
:100EE000B3FBF1F1890001640F490839C1630221A4
:100EF00080F82110136843F6F0718B43F0E9011478
:100F00002143D0E902452C4321430469214344692C
:100F10002143846921431943116000214163012267
:100F200042770177084630BD08040240F8FFFDBF54
:100F30000000024070B5044690F82000002501280A
:100F40000CD0012084F8200094F821600020012EAC
:100F500006D084F820000225284670BD022070BD0E
:100F6000022684F82160A0632068066826F0010646
:100F700006602046FFF798FAE06A002820680168BA
:100F800002D041F00E0106E021F00401016020686A
:100F9000016841F00A0101602068016841F0010127
:100FA0000160D9E770B5044600F008F90546601CF9
:100FB00002D004480078044400F000F9401BA0422D
:100FC000FAD370BD180000202DE9F84FDFF8B89172
:100FD0000024A9F1040B23460F2709F1040AABF101
:100FE000040EC9E00125A5402A40AA427DD1674EE2
:100FF000D1F804C0ACEB0608B44532D014DCBCF127
:10100000030F3AD009DCBCF1000F2AD0BCF1010F6C
:101010001CD0BCF1020F31D11DE0BCF1110F17D073
:10102000BCF1120F2AD119E0B8F5881F19D006DCDF
:10103000B8F5803F15D0B8F5801F1FD111E0B8F585
:10104000001F0ED0B8F5041F18D10AE0CB6815E0D8
:10105000CB681B1D12E0CB6808330FE0CB680C3364
:101060000CE08B682BB1012B4FF0080303D04561D6
:1010700004E0042302E0056100E00023FF2A01D818
:10108000064601E000F104064FEA840501D9A5F106
:101090002005D6F8008007FA05FC28EA0C0803FAB8
:1010A00005F548EA0508C6F800804D68ED0062D5F0
:1010B000374DAE6946F00106AE61AD6924F0030616
:1010C00005F001050095334D06EB050CDCF80850E2
:1010D000A607360F07FA06F825EA0805DFF8B880F4
:1010E000404503D14FF0000817E044E0DFF8AC8042
:1010F000404502D14FF001080FE0DFF8A4804045E1
:1011000002D14FF0020808E0DFF89880404502D194
:101110004FF0030801E04FF0040808FA06F848EA27
:101120000508CCF808804D68D9F80060ED024D46FE
:1011300001D5164300E096432E604D68DAF8006052
:10114000AD02554601D5164300E096432E604D682A
:10115000DBF80060AD035D4601D5164300E0964321
:101160002E604D68DEF80060ED03754601D516432C
:1011700000E096432E60641C0D682A46E5407FF42B
:1011800031AFBDE8F88F00000804014000001110E5
:10119000001002400000014000080140000C014026
:1011A00000100140001401408068084000D0012078
:1011B00070470AB1016170470904FBE70148806884
:1011C0007047000018000020D0F8400303F0FBBC7B
:1011D000D0F8400303F008BD006805F0C9BA006804
:1011E00005F0CABA01EB410100EB0110002280F8C2
:1011F0003F2080F83E201046704701EB410100EB94
:10120000011090F86400704701EB410100EB011000
:10121000406D704710B5044690F83803012809D096
:10122000012084F83803206805F0B1FA002084F822
:10123000380310BD022010BD2DE9FE4F0446DDE944
:101240000D9790F83803DDF830A09B461646884687
:1012500001281DD0012084F8380308EB480004EB76
:101260000013002583F83D5083F838B083F83980A7
:1012700083F8409006F07F0083F83A00414620460C
:10128000FFF7B0FF300606D5012083F83B0004E0ED
:101290000220BDE8FE8F83F83B5083F83CA0B8B233
:1012A000A3F84200CDF800A0CDE901905B4632469C
:1012B0004146206805F0D6FA84F83853E9E7D0F8BB
:1012C000400303F013BD2DE9F00301EB4104DDE918
:1012D00006C9DDE9087500EB0414022684F83B20FA
:1012E00084F84030BCF1000F0AD084F84460002537
:1012F0006BB1012B2ED0022B12D0032B16D10FE095
:101300004FF0030884F8448084F83D50EFE7BCF1C7
:10131000010F0BD152B9D7B9012284F8592003E04B
:10132000AAB194F85820AAB184F84460C4F848904F
:10133000276584F86450656584F8391084F8655031
:1013400004F138010068BDE8F00305F00ABB94F829
:101350005920E8E784F84450E8E700002DE9F0411F
:1013600006680446304605F00EFA012877D1206859
:1013700005F0DEFB002872D0206805F0D9FB800262
:1013800003D521684FF400104861206805F0D0FBB8
:10139000C00203D521684FF480104861206805F031
:1013A000C7FB400103D521684FF080604861206889
:1013B00005F0BEFB800702D5216802204861206845
:1013C00005F0B6FB800018D521684FF00050486149
:1013D000D6F84004C00710D11021304605F0A8F916
:1013E000304605F087F9A069022803D10121206861
:1013F00005F07AFB2046FFF7EBFE206805F098FB2E
:10140000C00102D5204602F0CEF8206805F090FB1E
:10141000000705D5204600F0A2F8216808204861A1
:10142000206805F085FB800124D5206805F095FA39
:10143000074600254FF0010815E000BF05F00F0139
:1014400008FA01F038420DD006EB4510D0F800053F
:10145000E9B20004204603D501F083FE02E01CE05F
:1014600001F0B2FF6D1CA068A842E7D821684FF0D8
:1014700000704861206805F05BFBC043C0060CD4D7
:101480002068816921F010018161204602F0D5F8C1
:101490002068816941F010018161BDE8F08170B57B
:1014A0008AB0040005D094F839032568002618B1E5
:1014B00007E001200AB070BD84F83863204600F0D0
:1014C00027F8032084F83903E86BC00500D4E660F0
:1014D000206805F0EDF804F1100128220D46684659
:1014E000FEF7E1FE94E80F0005F0BAF8012120684C
:1014F00005F05AFB282229466846FEF7D4FE94E8F8
:101500000F0005F0ABFA012084F839030020D1E781
:1015100008B50068B0F1A04F12D10A48416941F402
:10152000805141614069002200F480500090052103
:10153000432000F0D9F8BDE80840432000F0C6B8C9
:1015400008BD000000100240D0F8400303F0E7BBE4
:10155000D0F8400303F0E7BB006805F00CBBD0F8FF
:10156000400303F08EBB10B5044690F83803012801
:101570000DD0012084F838030121206805F09EF881
:10158000206805F0B1F8002084F8380310BD02206F
:1015900010BD10B5044690F83803012809D0012089
:1015A00084F83803206805F02DFB002084F8380308
:1015B00010BD022010BD000002488168027811446D
:1015C0008160704718000020074810B5016841F09D
:1015D00010010160032000F0A7F80F2000F006F8CA
:1015E00000F050F8002010BD0020024030B5054644
:1015F0001F4887B0C16941F02001C161C06906A9D7
:1016000000F02000009001A800F07EFA0498B0B12C
:1016100000F09AFA40001749174AB0FBF1F1174859
:10162000491E0260416040F2E7320021C0E9032117
:101630008160816100F0E0FF040003D015E000F05C
:1016400083FAE8E70D4801F04BF804000DD137208C
:1016500000F03CF8102D07D200222946372000F078
:1016600043F80748056000E0012407B0204630BD7C
:101670000010024040420F0000140040FC0900200E
:101680001C0000200F4808B5816941F0010181610B
:10169000816901F001010091C16941F08051C1618E
:1016A000C069002200F0805000900F21901E00F0D1
:1016B0001BF80548416821F0E06141F0007141608C
:1016C00008BD00000010024000000140002809DBB6
:1016D00000F01F02012191404009800000F1E0204C
:1016E000C0F8001170470000F0B40E4B1B680C46A8
:1016F000C3F30223C3F10705042D00D90425191DE6
:10170000072901D2002300E0DB1E012606FA05F1BD
:10171000491E214099409E40761E16403143F0BC40
:1017200005F094BC0CED00E0064900F007020868E3
:101730004FF6FF03184040EA0220034A10430860B6
:10174000704700000CED00E00000FA0570B501469E
:1017500000203C4A3C4C04293FD00BDC012957D0E7
:10176000022939D100F000FA6168C1F38131491CC6
:1017700049002FE0082943D010292DD16368216842
:10178000C90129D53148C3F38341415CD8031AD537
:10179000E06A2E4B00F00F000E33185CE36ADB03A7
:1017A0000AD5E36AE56AC3F303135B1CB2FBF3F2E9
:1017B000C5F30325AD1C6A43B2FBF0F048430D2985
:1017C00003D1400801E0224848436168490203D43C
:1017D00040000321B0FBF1F070BDE16A890311E024
:1017E0002168C900F8D5E06AE16AC0F30310401C23
:1017F000B2FBF0F0C1F30331891C4843400070BDD7
:10180000E16A49030029EBDBBDE8704000F0BCB998
:10181000226AC2F30121012903D1920701D5C8032D
:1018200070BD022905D1626A920702D549F640408F
:1018300070BD0329FCD121688903F9D54FF22440FA
:1018400070BD000000127A00001002402EA40008B3
:1018500000093D002DE9F843044600785B4DC007C0
:101860004FF0010951D0E8690026C00008D4E869AA
:1018700040F08050E861E869012600F08050009057
:1018800053480168C90512D40168804641F480714B
:101890000160FFF793FC074605E000BFFFF78EFCF1
:1018A000C01B642877D8D8F80000C005F6D5286A90
:1018B00010F440701ED0A18801F44071814219D00B
:1018C000286A444920F44070C1F8009000220A6060
:1018D0002862C0070ED0FFF771FC074641F2883836
:1018E00005E000BFFFF76AFCC11B414553D8286AD9
:1018F0008007F7D5286A616820F4407008432862A1
:101900001EB1E86920F08050E8612078800705D595
:101910006868A16820F44040084368602078400768
:1019200005D5E86AE16820F400300843E8622078D1
:10193000000705D5E86A216920F480200843E862A1
:10194000E86A800302D4E86A400333D52868C000FF
:1019500028D42868400105D5E86AA16900F0F000A4
:10196000884225D1E86AA16920F0F0000843E862C6
:10197000E86A616920F470400843E8621649C1F8DA
:101980007090FFF71BFC064608E004E0FFF716FC2A
:10199000801B642802D90320BDE8F88328688000F2
:1019A000F4D507E0E86A616900F47040884201D02C
:1019B0000120F1E72078C00605D56868E16920F4C8
:1019C0008000084368600020E6E700000010024045
:1019D0000070004040044242000042422DE9F047BE
:1019E0000F46050061D0434E306800F00700B84252
:1019F00009D2306820F0070038433060306800F0CA
:101A00000700B84251D128683B4C810712D54007E6
:101A100003D5606840F4E06060602878000703D573
:101A2000606840F4605060606068A96820F0F00071
:101A3000084360602878C00728D06868012810D063
:101A40002168022810D0890700292EDA616821F068
:101A5000030101436160FFF7B1FB804641F2883921
:101A60000DE021688903EFE78901EDE7FFF7A6FBA9
:101A7000A0EB0801494502D90320BDE8F087606862
:101A8000696800F00C00B0EB810FEFD1306800F016
:101A90000700B8420BD9306820F0070038433060A7
:101AA000306800F00700B84201D00120E5E728784F
:101AB000400705D56068E96820F4E060084360608D
:101AC0002878000706D56068296920F4605040EA4C
:101AD000C100606000F058F86168084AC1F3031162
:101AE000515CC8400649086006480068FFF77EFD63
:101AF0000020C2E700200240001002404CA4000871
:101B0000240000201C0000200F2202600C4A5368B1
:101B100003F003034360536803F0F00383605368EA
:101B200003F4E063C36052684FF4E06303EAD20257
:101B300002610448006800F0070008607047000078
:101B4000001002400020024004480549006849682E
:101B5000044AC1F30221515CC840704724000020B0
:101B6000001002405CA40008044805490068496868
:101B7000044AC1F3C221515CC840704724000020D0
:101B8000001002405CA400082DE9F0411D494A689C
:101B90001D4802F00C03042B2ED0082B2CD11B481F
:101BA000C2F38343C45CD00328D5C86A174A00F047
:101BB0000F000E32105CCA6AD20316D5CA6AC96A0F
:101BC000C2F30312C1F30321521C891CA2FB0023A0
:101BD000A1FB04150C4F0026A1FB070C05FB07C554
:101BE00001FB0651FEF71EFB03E007496143B1FB11
:101BF000F0F00D2C00D14008BDE8F08104486043AE
:101C0000FAE700000010024000127A0010A4000859
:101C100000093D002DE9F84F040070D02078F14D07
:101C2000C00749D06868C0F38100012807D0686800
:101C3000C0F38100022809D16868C00306D528686E
:101C4000800339D5A0680028E7D035E0A068B0F55A
:101C5000803F0BD010B1B0F5A02F11D0286820F430
:101C600080302860286820F4802002E0286840F452
:101C700080302860A06890B1FFF7A0FA06460AE01D
:101C8000286840F480202860F0E700BFFFF796FA4C
:101C9000801B642876D828688003F7D50CE0FFF70E
:101CA0008DFA064605E000BFFFF788FA801B64281E
:101CB000F0D828688003F7D42078CB4E80074FF007
:101CC00001094FF000073AD5686810F00C0F07D0F3
:101CD0006868C0F38100022809D16868C00306D48F
:101CE0002868800715D56069012808D111E060696E
:101CF000B8B1C6F80090FFF761FA804606E042E10D
:101D0000FFF75CFAA0EB08000228C3D82868800718
:101D1000F6D52868A16920F0F80040EAC1002860E3
:101D20000DE03760FFF74AFA804605E0FFF746FA14
:101D3000A0EB08000228ADD828688007F6D42078E8
:101D400000072ED5A948E169E9B1C0F80090FFF776
:101D500035FA804606E000BFFFF730FAA0EB080036
:101D6000022897D8686A8007F6D5A1484FF4FA513F
:101D70000068B0FBF1F0009000BF0098411E009198
:101D8000FAD20EE0B0E00760FFF718FA804605E0EF
:101D9000FFF714FAA0EB0800022889D8686A8007C8
:101DA000F6D42078400763D5E8694FF00008C000FA
:101DB00009D4E86940F08050E861E8694FF0010813
:101DC00000F0805000908B480168C90512D401686A
:101DD000834641F480710160FFF7F0F9824605E027
:101DE000FFF7ECF9A0EB0A0064287DD8DBF80000CF
:101DF000C005F5D5206901280AD008B1052813D0FF
:101E0000286A20F001002862286A20F0040002E01D
:101E1000286A40F001002862206941F2883B98B1AD
:101E2000FFF7CCF982460BE0286A40F004002862F4
:101E3000EEE700BFFFF7C2F9A0EB0A01594553D8FE
:101E4000286A8007F6D50CE0FFF7B8F9824605E06E
:101E5000FFF7B4F9A0EB0A01594545D8286A800775
:101E6000F6D4B8F1000F03D0E86920F08050E861A3
:101E7000E06AD0B36968C90307D56968C1F3810115
:101E8000022902D1E96AC9037DD4022808D0E86A90
:101E900020F48030E862B766FFF790F980463BE0B7
:101EA0002868C00005D5E86A616B00F0F000884240
:101EB00069D1B766FFF782F9804605E0FFF77EF942
:101EC000A0EB0800642874D828680001F6D4E86AFA
:101ED000616B20F0F0000843E862E86A216B20F4AF
:101EE00070600843E86201E063E018E0C6F86890BB
:101EF000FFF764F9804605E0FFF760F9A0EB080002
:101F0000642856D828680001F6D508E0FFF756F98E
:101F1000A0EB080064284CD828680001F6D4206A99
:101F200090B36968C1F38101022949D0022837665C
:101F300003D0FFF743F904463EE0FFF73FF90746B9
:101F400005E000BFFFF73AF9C01B022831D8286826
:101F50008001F7D4606AB0F5803F09D1E86A616812
:101F60000843E862E86AE16820F00F000843E8628D
:101F7000D4E909010843696821F4741108436860D1
:101F8000C6F8609001E028E029E0FFF717F9044661
:101F900005E000BFFFF712F9001B022809D82868E6
:101FA0008001F7D51BE000BFFFF708F9001B0228EE
:101FB00002D90320BDE8F88F28688001F4D40EE030
:101FC0000128F7D06868626A00F48031914204D138
:101FD000A16A00F47010884201D00120EAE70020D5
:101FE000E8E7000000100240000042428004424244
:101FF0002400002000700040704770B5040009D034
:10200000606A002540B125616561A56294F85100C0
:1020100040B10CE0012070BD6068B0F5827FF4D063
:10202000E561F2E784F85050204600F03FF80220C6
:1020300084F851002068016821F040010160A08807
:10204000218900F4827001F404410843A18901F45C
:1020500000610843217C01F002010843217D01F069
:1020600001010843218B01F400710843217F01F035
:102070003801084394F8201001F080010843218DB5
:1020800001F40051084321680860A069042101EAB5
:102090001040216848602068C16921F40061C16175
:1020A0006565012084F85100002070BD70B586B0D0
:1020B0000025064600950195029503950068204984
:1020C00088423BD11F49C86940F48040C861C86953
:1020D00000F480400490886940F0080088618869B5
:1020E000194C00F0080004904FF4204000900220AA
:1020F00001900320039069462046FEF765FF4FF4E8
:102100008040CDE90005694620460295FEF75CFF58
:102110000F4C0E4820601020C4E901058020C4E95E
:1021200003054FF440506561C4E906502046FEF7B0
:10213000C3FE08B1FEF7F3F9B464666206B070BD81
:102140000038004000100240000C014058000240DE
:102150009C0800202DE9F84F044690F85000002616
:10216000984615468A4601280CD0012784F85070FD
:10217000FFF724F8814694F85100B346012804D0B3
:1021800002269AE00220BDE8F88FBAF1000F6FD066
:10219000002D6DD0032084F85100C4F854B0C4F869
:1021A00030A0A586E586C4F838B0A4F83CB0A4F801
:1021B0003EB0C4F844B0C4F840B0A068B0F5004FD9
:1021C00009D12068016821F04001016020680168A0
:1021D00041F48041016020680168490603D4016828
:1021E00041F040010160E068B0F5006F606803D025
:1021F00058B3012D29D049E008B1012D1FD1206B22
:1022000021680088C86006E020688168890709D5D0
:10221000216B0988C160206B801C2063E08E401E0A
:10222000E0860CE0FEF7CAFFA0EB0901414503D3AD
:10223000B8F1FF3F03D006E0B8F1000F03D0E08E05
:102240000028E1D125E0032635E0206B21680078E5
:10225000087306E02068816889070AD5216B097830
:102260000173206B401C2063E08E401EE0860DE071
:102270001FE0FEF7A3FFA0EB0901414503D3B8F12E
:10228000FF3F03D0DFE7B8F1000FDCD0E08E00287D
:10229000E0D14A464146204601F08AFC08B12020A0
:1022A0006065A06818B92068C16880680090606D9A
:1022B00008B1012601E084F8517084F850B030462E
:1022C00061E72DE9FF4F81B0044690F850000026E9
:1022D0000E9F1D4693464FF0010901280FD04FF085
:1022E000010A84F850A0FEF769FF804694F8510077
:1022F000616801280DD0B1F5827F08D103E002208A
:1023000005B0BDE8F08FA16809B9042801D0022604
:10231000C9E00298002865D0BBF1000FFBD0002D6A
:10232000F9D094F85100042802D0052084F8510017
:1023300000206065C4F838B0E587A587029921635D
:10234000E586A5862064606420680168490603D498
:10235000016841F040010160E068B0F5006F60681D
:1023600003D0F0B3012D47D081E008B1012D3CD15D
:10237000206B21680088C860206B801C2063E08E81
:10238000401EE08631E02068816889070FD5E18E24
:1023900069B1B9F1010F0AD1216B0988C160206BC5
:1023A000801C2063E08E401EE0864FF0000920680C
:1023B0008168C9070CD0E18F51B1C068A16B08805A
:1023C000A06B801CA063E08F401EE0874FF00109E6
:1023D000FEF7F4FEA0EB0800B84206D3781C04D048
:1023E00001E009E05BE003265BE0E08E0028CAD153
:1023F000E08F0028C7D140E0206B21680078087387
:10240000206B401C2063E08E401EE0862FE0206899
:10241000816889070FD5E18E69B1B9F1010F0AD141
:10242000216B09780173206B401C2063E08E401EF5
:10243000E0864FF0000920688168C9070CD0E18F61
:1024400051B1C068A16B0870A06B401CA063E08F05
:10245000401EE0874FF00109FEF7B0FEA0EB080038
:10246000B84202D3781C02D0BAE7002FB8D0E08E71
:102470000028CCD1E08F0028C9D1424639462046F9
:1024800001F096FB18B10126202060650BE0A068E2
:1024900018B92068C16880680090606D08B1012695
:1024A00001E084F851A0002084F85000304627E76E
:1024B00070B5044690F850000026012809D001208C
:1024C00084F8500094F851000025012803D002261A
:1024D0004AE0022070BD89B182B1032084F8510026
:1024E00065652163A286E286A56365642564A58788
:1024F000E587A068B0F5004F02D00BE0012633E07D
:102500002068016821F0400101602068016841F401
:1025100080410160A16C1648C862A16C15488862B0
:10252000A16C15480863A06C4563E38E2268216B9B
:102530000C32A06CFEF7FEFC20B1606D40F0100084
:102540006065DBE720680168490603D4016841F053
:10255000400101602068416841F02001416020682D
:10256000416841F00201416084F85050304670BD2E
:10257000433B00084D3B0008213B00087047704773
:102580007047704770B590F83C20012A29D001248B
:1025900080F83C40022280F83D2003685A689D681C
:1025A00022F070060A6832435A600F4B02689A4262
:1025B0000BD0B2F1804F08D00C4B9A4205D00C4B97
:1025C0009A4202D00B4B9A4204D1496825F080030D
:1025D0001943916080F83D40002180F83C10084686
:1025E00070BD022070BD0000002C014000040040BE
:1025F00000080040000C004010B5040003D094F81F
:102600003D0010B107E0012010BD002084F83C001F
:10261000204600F01FF8022084F83D00211D2068AC
:1026200001F0DCFB012084F8460084F83E0084F8C9
:102630003F0084F8400084F8410084F8420084F8A8
:10264000430084F8440084F8450084F83D000020ED
:1026500010BD000038B5054600681D49B0F1804F37
:102660002CD01C4A904231D1C86940F00200C861A8
:10267000C8691A4C00F00200009017482060102032
:10268000606000208021C4E90201490021618900C5
:10269000C4E90510E0612046FEF70EFC08B1FDF725
:1026A0003EFF2C632C62002205211D206562FFF78E
:1026B0001BF8BDE838401D20FFF708B8C86940F096
:1026C0000100C861C86900F00100009038BD000039
:1026D0000010024000040040300002407009002059
:1026E00090F83D10012901D001207047022180F8A7
:1026F0003D100168CA6842F00102CA6000680D49D5
:1027000088420BD0B0F1804F08D00B49884205D0E9
:102710000A49884202D00A49884204D1816801F0FE
:102720000701062903D0016841F001010160002082
:1027300070470000002C01400004004000080040E9
:10274000000C004070B5044690F83C0000250128BC
:1027500017D0012684F83C60022084F83D002068F0
:10276000826822F0770222F47F4282600868502853
:1027700038D00DDC20284FD005DC90B3102811D1C3
:102780004AE0022070BD302846D040280AD13BE004
:1027900060282FD070280DD0B0F5805F03D0B0F541
:1027A000005F12D0012584F83D60002084F83C00D1
:1027B000284670BDCB68D1E90121206801F0CEFB2D
:1027C0002068816841F0770109E0CB68D1E90121F7
:1027D000206801F0C3FB2068816841F4804181607A
:1027E000E1E719E0CA684968206801F06BFC5021F4
:1027F000206806E0CA684968206801F074FC60211E
:10280000206801F0B5FBCEE7CA684968206801F08E
:1028100059FC40212068F4E7226801461046F0E7A1
:102820007047704770B50446006801694FF00005B5
:10283000C943890715D4C168C943890711D4E91E62
:10284000016101202077206880698007204602D03E
:10285000FFF7E7FF04E000F0DBF8204600F06EF938
:10286000257720680169C943490717D4C168C9435E
:10287000490713D46FF0040101610220207720681A
:10288000806910F4407F204602D0FFF7CAFF04E0C1
:1028900000F0BEF8204600F051F925772068016964
:1028A000C943090716D4C168C943090712D46FF098
:1028B00008010161042020772068C0698007204654
:1028C00002D0FFF7AEFF04E000F0A2F8204600F0CF
:1028D00035F9257720680169C943C90617D4C1684D
:1028E000C943C90613D46FF0100101610820207795
:1028F0002068C06910F4407F204602D0FFF791FFA6
:1029000004E000F085F8204600F018F925772068EB
:102910000169C943C90708D1C168C943C90704D1BE
:10292000891E0161204600F017FA20680169C94339
:10293000090609D4C168C943090605D46FF08001AE
:1029400001612046FFF71CFE20680169C943490662
:1029500009D4C168C943490605D46FF0400101613B
:10296000204600F003FA20680169C94389060BD4A8
:10297000C168C943890607D46FF020010161204670
:10298000BDE87040FFF7FDBD70BD000010B586B01A
:1029900000210091019102910391036818490222DC
:1029A0001848B3F1804F12D0174CA3420DD18B6958
:1029B00043F008038B618969009201F008010192DC
:1029C000CDE903216946FEF7FFFA06B010BD8B6919
:1029D00043F008038B618969039201F008010491B7
:1029E0000821CDE900126946FEF7EEFA0748416872
:1029F00021F4407141F0E06141F480714160E4E70D
:102A000000100240000C01400004004000000140A2
:102A1000704770B5044690F83C0000260D4601282A
:102A20000FD0012084F83C006AB1042A1DD0082A86
:102A30002FD00C2A3FD00126002084F83C003046DD
:102A400070BD022070BD206801F09AFA206881698B
:102A500041F0080181612068816921F004018161F0
:102A6000206881692A69114311E0206801F0B0FAF9
:102A70002068816941F4006181612068816921F4E5
:102A800080618161206881692A6941EA022181614E
:102A9000D2E7206801F0C8FA2068C16941F0080156
:102AA000C1612068C16921F00401C1612068C16968
:102AB0002A69114311E0206801F0E2FA2068C16937
:102AC00041F40061C1612068C16921F48061C16184
:102AD0002068C1692A6941EA0221C161ACE710B5E9
:102AE000040003D094F83D0010B107E0012010BDB0
:102AF000002084F83C00204600F01EF8022084F8F4
:102B00003D00211D206801F069F9012084F846008C
:102B100084F83E0084F83F0084F8400084F84100C7
:102B200084F8420084F8430084F8440084F84500A7
:102B300084F83D00002010BD704700000C210148C2
:102B400000F0D2B828090020704700002DE9F041BC
:102B500017460D0004464FF000060CD0042D11D08E
:102B6000082D16D094F84100022819D094F841009D
:102B7000012818D07CE094F83E00022810D094F888
:102B80003E00F5E794F83F00022809D094F83F0092
:102B9000EEE794F84000022802D094F84000E7E7FE
:102BA0000220BDE8F081002F62D0002B60D04749A1
:102BB000474ADFF820C102204DB1042D18D0082D5E
:102BC00027D084F841000C2D44D001267CE084F805
:102BD0003E00606A8162606A3946C262606AC0F81B
:102BE00030C02268606A3432FEF7A4F988BB21E065
:102BF00084F83F00A06A8162A06A3946C262A06A76
:102C0000C0F830C02268A06A3832FEF793F900BBE2
:102C100015E084F84000E06A8162E06A3946C262E9
:102C2000E06AC0F830C02268E06A3C32FEF782F900
:102C300078B909E02068C16841F400711EE020689D
:102C4000C16841F4806119E02068C16841F4006105
:102C500014E00DE0206B8162206B3946C262206B6C
:102C6000C0F830C02268206B4032FEF763F908B12B
:102C7000012096E72068C16841F48051C1600122BB
:102C80002946206801F0E8F813492068884203D1FA
:102C9000426C42F400424264206888420BD0B0F19A
:102CA000804F08D00D49884205D00D49884202D096
:102CB0000C49884204D1816801F00701062903D03C
:102CC000016841F00101016030466AE7733E000887
:102CD000D13E0008093F0008002C014000040040DC
:102CE00000080040000C004030B504460D46006866
:102CF000002201F0B1F8174B41F2111120688A103F
:102D0000984209D1036A0B4206D1036A134203D1E8
:102D1000436C23F4004343642068036A0B4206D1EA
:102D2000016A114203D1016821F001010160012013
:102D30003DB1042D08D0082D09D084F841000020B1
:102D400030BD84F83E00FAE784F83F00F7E784F8E6
:102D50004000F4E7002C014000680349884201D19B
:102D6000FEF72ABC7047000000140040704770470F
:102D700070470000F8B5016804460868CA684B69E6
:102D800010F00F0F4FF0000559D003F0010602F4C8
:102D90009077374365D0C10705D0D10503D5616C65
:102DA00041F001016164410705D5D90703D0616C89
:102DB00041F002016164810705D5D90703D0616C38
:102DC00041F004016164010707D502F0200131439D
:102DD00003D0616C41F008016164616C00293AD054
:102DE000800604D5900602D5204601F0F6F9206849
:102DF0004069616CC0F38010090700D460B32046BD
:102E000001F0C4F920684069400621D520681430DB
:102E100050E8001F21F0400140E80012002AF5D1DF
:102E2000E06BA8B16D494163E06BFDF785FE0028BA
:102E300011D0E06B416B01B0BDE8F040084783065C
:102E40000FD593060DD52046BDE8F84001F0C5B971
:102E50002046FFF78DFFF8BD2046FFF789FF656428
:102E6000F8BD266B2023012E7CD1C6067AD5D60666
:102E700078D508684868009048694FF00206400617
:102E800040D5E16B086840680004000CE8D0A28DD2
:102E90008242E5D9E085886920282DD020680C3051
:102EA00050E8001F21F4807140E80012002AF5D19B
:102EB0002068143050E8001F21F0010140E80012A2
:102EC000002AF5D12068143050E8001F21F040019D
:102ED00040E80012002AF5D184F8423025632068CA
:102EE0000C3050E8001F21F0100140E80012002AC9
:102EF000F5D1E06BFDF7FCFD6663A08DE18D401A16
:102F000081B22AE0A08DE18D401A81B2E08D0028C7
:102F1000A6D00029A4D022680C3252E8000F20F479
:102F2000907042E80007002FF5D12068143050E877
:102F3000002F22F0010240E80027002FF5D184F88D
:102F40004230256320680C3050E8002F22F0100238
:102F500040E80023002BF5D166632046FFF707FF0A
:102F6000F8BDFFE705062BD5150629D594F84100D5
:102F70002128F5D1A068B0F5805F01D12069B0B1FA
:102F8000206A411C2162216800784860E08C401E64
:102F90000004000CE084E3D12068C16821F08001C6
:102FA000C1602068C16841F04001C160D8E7206A73
:102FB0000088C0F308004860206A801C2062E5E7B2
:102FC0004006CDD55006CBD5CA68204622F0400237
:102FD000CA6084F8413000F0C3F8C1E77D410008C1
:102FE00070B5040004D094F84100002510B106E04B
:102FF000012070BD84F84050204600F023F82420C2
:1030000084F841002068C16821F40051C160204665
:1030100001F044F92068016921F4904101612068C0
:10302000416921F02A0141612068C16841F40051E1
:10303000C1606564202084F8410084F84200656323
:10304000002070BD30B585B0002400940194029436
:1030500003940068184988422BD11848C16941F48B
:103060000031C161C16901F400310491816941F00D
:10307000040181618069124D00F004000490042075
:103080000090022001900320039069462846FDF736
:103090009BFF0820CDE90004694628460294FDF70D
:1030A00093FF002205212620FEF71EFB2620FEF7B7
:1030B0000DFB05B030BD0000004400400010024090
:1030C0000008014070472DE9F843044690F841009C
:1030D0001F4616460D46202802D00220BDE8F88380
:1030E0007DB176B100206064212084F84100FEF7B4
:1030F00065F8A6848046E684A068B0F5805F02D0BB
:1031000003E00120EAE7206910B12E4600250EE019
:1031100000260CE08021204601F01CF9A0B9AEB1D8
:1031200016F8010B21684860E08C401EE084E08CBA
:1031300043464FF0000200970028EBD14FF04001CA
:10314000204601F007F930B10320C7E735F8020B3C
:10315000C0F30800E6E7202084F841000020BDE726
:1031600070472DE9F05F054600680F46064603F0FC
:10317000D7FC07EB470140074FF0070A4FF004095F
:1031800005EB011401D5484633E03946286803F0C1
:10319000C7FCC0054FF0080808D506EB47114FF4EF
:1031A0008070C1F8080584F8658028E039462868F1
:1031B00003F0B6FC000705D506EB4711C1F80885FA
:1031C00006200CE03946286803F0AAFC400509D522
:1031D00006EB47114FF48060C1F80805092084F818
:1031E00065000CE03946286803F09AFC00060AD511
:1031F000802006EB4711C1F8080584F865A0394620
:10320000286803F0C4FA3946286803F089FC800571
:103210002868394604D503F0BAFA4FF4007048E044
:1032200003F07EFCC0074FF000084FF0010A39D0D0
:1032300084F865A006EB4716C4F860805246C6F8CD
:1032400008A594F8400030B1022804D003280AD021
:10325000012808D013E03946286803F098FA1020B6
:10326000C6F808050BE0D6F8000540F00050C6F897
:10327000000584F8642039462846FEF720F8E868FF
:10328000012808D1B4F84200616D0144491EB1FB28
:10329000F0F0C00704D014F8580F80F0010020703F
:1032A000BDE8F09F3946286803F03AFC800605D552
:1032B000202006EB4711C1F80805F1E739462868D8
:1032C00003F02EFC80074FF0050B51D506EB47129B
:1032D0000220C2F8080594F86510012916D00629C5
:1032E00019D007291CD009291AD0052932D0032961
:1032F00030D0042931D0082932D00229D0D094F816
:10330000642039462846FDF7DAFFC9E784F86500EE
:1033100084F864A0F3E784F8650084F864B0EEE70D
:1033200084F86500216E491C2166022902D9C4F87F
:1033300060801AE084F8640094F8400008B1022824
:10334000DDD1D2F8000520F0804040F00040C2F806
:103350000005D4E784F86500D1E784F86500E9E763
:1033600084F86500206E401C206684F86490C6E7EF
:103370003946286803F0D4FB40060ED506EB47110A
:103380004020C1F8080584F865B0C4F8608039466B
:103390002868BDE8F05F03F0FAB93946286803F001
:1033A000BFFBC00689D594F84000032802D008B1BD
:1033B000022807D1C4F8608084F8659039462868EF
:1033C00003F0E5F9102074E72DE9F05F0546006889
:1033D0000F46064603F0A4FB07EB470140074FF0FA
:1033E00004084FF0070A05EB011406D506EB471158
:1033F000C1F8088584F865A034E03946286803F0F0
:103400008FFB800601D5202041E03946286803F073
:1034100087FB800506D506EB47114FF40070C1F815
:1034200008051FE03946286803F07AFBC0074FF013
:1034300000094FF0010B07D006EB4711C4F860906C
:103440005846C1F808B50BE03946286803F068FB18
:1034500000070DD506EB47110820C1F80805062026
:1034600084F8650039462868BDE8F05F03F08FB93D
:103470003946286803F054FBC0060ED5C4F86090A6
:1034800084F865803946286803F081F9102006EB3E
:103490004711C1F80805BDE8F09F3946286803F0D8
:1034A0003FFB000607D584F865A03946286803F07D
:1034B0006EF98020EBE73946286803F031FB4005C0
:1034C00009D5092084F865003946286803F05FF9BA
:1034D0004FF48060DBE73946286803F021FB800762
:1034E000D9D506EB47120220C2F8080594F86510FA
:1034F000012915D0032939D004293AD006293BD017
:10350000072901D00929C6D184F86500216E491C1C
:103510002166022936D9C4F8609084F864803BE0C3
:1035200084F8650084F864B094F84000022801D063
:10353000032831D1E86828B994F8590080F00100D7
:1035400084F85900E868012826D1216D21B3B4F828
:1035500042000144491EB1FBF0F0C0071CD094F8B2
:10356000590080F0010084F8590015E084F86500E6
:1035700012E084F8650002E084F86500052084F814
:10358000640009E084F86400D2F8000520F080406F
:1035900040F00040C2F8000594F8642039462846FF
:1035A000FDF78DFE77E77CB504680546D4F8400446
:1035B0000190D4F8400420F02E000090019880077C
:1035C00009D50198C00702D02846FDF7FDFD0098F7
:1035D00040F0020000900198000724D5009840F0C8
:1035E00008000090019840071AD5A869022803D066
:1035F000286901280CD00FE00198C0F3414002284F
:10360000286803D0012103F06FFA05E00221FAE7F0
:103610004EF66020C4F804042846FDF799FF02E046
:103620002846FDF791FF01988006009802D540F0EA
:1036300020000090C4F840047CBD2DE9F041024612
:1036400000680646016AC1F3434301F00F07C1F366
:103650000A15022B2FD1002D2DD007EB470102EBCD
:103660000114A16C002926D0626D236D2A449A4270
:1036700023D82A4603F060FAA06C2844A064606D49
:103680002844606506EB4710D0F81015B4F84220C6
:10369000C1F3C941AA420ED100290CD0D0F80015BF
:1036A00021F0804141F00041C0F8001514F8580F96
:1036B00080F001002070BDE8F081042084F86400EF
:1036C000F9E7FEE710B500220A490B4804F0AAF911
:1036D000010007D009A003F095FC0DA003F092FCB7
:1036E00072B6FEE70BA000F011FDBDE810400AA085
:1036F00003F0E2BA110000201C010020665F6D6F2C
:10370000756E74206572726F723A20256400000035
:103710000A000000303A0000303A2F3131312E6D6E
:10372000703300003EB500211D48009101911B4AF5
:1037300002910260921582600124047301750325D1
:103740004FF460220561C2614160FDF76BF808B17A
:10375000FCF7E5FE0420CDE900040720029069464D
:103760000F48FCF76FFF08B1FCF7D9FE0520009069
:103770000220019069460A48FCF764FF08B1FCF793
:10378000CEFE0620CDE9000569460548FCF75AFF44
:10379000002801D0FCF7C3FE3EBD0000002401401C
:1037A000D0070020114808B5416941F0010141618D
:1037B0004069002200F00100009005210B20FDF778
:1037C00093FF0B20FDF782FF002205210D20FDF75E
:1037D0008BFF0D20FDF77AFF002205210F20FDF75A
:1037E00083FFBDE808400F20FDF770BF00100240C6
:1037F00010B504490448FCF794FE0249491E0870BC
:1038000010BD000011000020E4A4000810B58EB027
:103810001C220B496846FCF746FD0021684605F06E
:1038200009F9084C06491C2220601C3107A8FCF746
:103830003AFD002107A805F0FDF860600EB010BD4C
:10384000D8A30008080000202DE9F04385B000242B
:1038500032480094019402940394816941F010016C
:103860008161816901F010010491816941F02001B9
:103870008161816901F020010491816941F00401B5
:103880008161816901F004010491816941F00801BD
:1038900081618069DFF8889000F0080004900022C0
:1038A0004FF45C714846FDF784FCDFF878804FF4F4
:1038B0008057002239464046FDF77BFC4FF4B87034
:1038C00001250226CDE90005CDE9024669464846B4
:1038D000FDF77AFBCDE90054694640460294FDF7B6
:1038E00073FB00970396CDE9015469464046FDF706
:1038F0006BFB80208DE8310069464846FDF764FB8C
:103900006802009001AA112082E8510069464846E9
:10391000FDF75AFB05B0BDE8F0830000001002403F
:1039200000100140000C0140104810B50E49016024
:103930004FF48271416000218160C1604FF40072D8
:103940000161C0E905121822C0E9072141628162C4
:103950000A21C162FEF751FB002803D0BDE81040E8
:10396000FCF7DDBD10BD0000003800404408002019
:1039700010B58EB000240794089409940A940B940F
:103980001C2168460C94FCF7A7FC1D484FF08041B1
:10399000C0E9001441F61F41C0E90241046184619D
:1039A000FEF72AFE08B1FCF7BAFD4FF480500790ED
:1039B00007A91348FEF7C6FE08B1FCF7B0FD104892
:1039C000FFF78DF808B1FCF7AAFD0B940BA90C4882
:1039D0000C94FEF7D7FD08B1FCF7A1FD6020CDE9FE
:1039E000000402940422694605480494FFF711F884
:1039F00008B1FCF794FD0248FEF7C8FF0EB010BDF9
:103A0000E008002010B58EB00024079408940994B3
:103A10000A940B941C2168460C94FCF75DFC1D482D
:103A20001B49C0E900145921C0E9024104618461C5
:103A3000FEF7E2FD08B1FCF772FD4FF480500790ED
:103A400007A91448FEF77EFE08B1FCF768FD11488F
:103A5000FFF745F808B1FCF762FD0B940BA90D4880
:103A60000C94FEF78FFD08B1FCF759FD6020CDE9FD
:103A7000000402940C22694606480494FEF7C9FF2C
:103A800008B1FCF74CFD0348FEF780FF0EB010BDF7
:103A900000040040280900200C4810B50A490160C4
:103AA0004FF4E1314160002181600C22C160C0E926
:103AB00004128161C161FFF793FA002803D0BDE8C9
:103AC0001040FCF72CBD10BD00440040B40900209C
:103AD00010B501220B490C4801F018F808B1FCF7A9
:103AE0001EFD0A49084802F0EFFB08B1FCF717FD7C
:103AF000054802F0CBFC002803D0BDE81040FCF7DD
:103B00000EBD10BDA1640008440A00203000002052
:103B1000FEE7FEE70148FDF721BC0000200E002073
:103B200010B5406A01684A6822F003024A60416D9C
:103B300041F010014165012180F85110FEF75CFA57
:103B400010BD10B5406AFEF71AFD10BD38B5054628
:103B5000446AFDF733FB024628680068800623D4D8
:103B60002068416821F0200141602068416821F00F
:103B7000020141606421204600F01AF818B1606D1E
:103B800040F020006065A068002118B92068C26874
:103B900080680090E186012084F85100606D18B1C2
:103BA0002046FEF729FA38BD2046FEF7E7FC38BD6F
:103BB00038B50B46009204460022802100F008F838
:103BC000002804D0606D40F020006065032038BDFF
:103BD0002DE9F8431E46914688460446089DFDF7A8
:103BE000EDFA401B351AFDF7E9FA0746254800684B
:103BF000C0F3CB30684338E0701C37D0FDF7DEFAF5
:103C0000C01BA84203D215B1009860B32CE0206815
:103C1000416821F0E00141606068B0F5827F0BD11E
:103C2000A068B0F5004F02D0B0F5806F04D12068D5
:103C3000016821F040010160A06AB0F5005F09D180
:103C40002068016821F4005101602068016841F496
:103C500000510160012084F85100002084F85000D8
:103C60000320BDE8F8830025401E0090206881688D
:103C700038EA010004D000214945BDD10020F0E719
:103C80000121F9E724000020082807D2044B0A0C80
:103C90001A54044B0A0A1A54034A1154704700007C
:103CA000880000208000002090000020FFF710FF17
:103CB0000B4D0C4C00260A220121D5F8D00304F04C
:103CC00005FE207838B1012805D0022803D106A0CE
:103CD00003F098F926700A2004F08FFDEBE700004E
:103CE000440A00201500002075736220636F6E6E19
:103CF00065637465640D0A00052005F003FA03F09E
:103D00000FF9012004F079FDF6E7000010B550200E
:103D100080F31188BFF34F8FBFF36F8F06F0C6F9A2
:103D200018B104494FF080500860002080F31188DA
:103D300010BD000004ED00E070B59CB0382168466D
:103D4000FCF7CAFA142116A8FCF7C6FA20210EA81F
:103D5000FCF7C2FA012500242804CDE9020402265A
:103D6000CDE908600095059501944FF4E010CDE988
:103D70000A046846FDF74EFF08B172B6FEE70F2051
:103D8000CDE916064FF48060CDE91840022116A84F
:103D90001A94FDF723FE08B172B6FEE712200E90CA
:103DA0004FF40040159410900EA8FDF753FD08B194
:103DB00072B6FEE7014805671CB070BD00004242C4
:103DC000704700000148FEF72DBD000028090020C3
:103DD0000148FEF727BD0000FC090020F0B502688D
:103DE000194B1A4C1A4D1B4E4FF08047984207D082
:103DF000B84205D0A04203D0A84201D0B04204D1BD
:103E000022F0700C4A6842EA0C02984207D0B8428D
:103E100005D0A04203D0A84201D0B04203D122F481
:103E20004074CA6822434C6922F080022243026037
:103E30008A68C2620A688262984201D10969016394
:103E400001214161F0BD0000002C01400004004050
:103E500000080040000C004010B501F01F030121D4
:103E6000046A99408C430462016A9A4011430162DA
:103E700010BD10B5446A0121626A824205D12177E2
:103E80008069F8B984F83E101CE0A26A824206D12B
:103E9000022222778069A8B984F83F1012E0E26A12
:103EA000824206D104222277806958B984F84010F2
:103EB00008E0226B824205D108222277806908B986
:103EC00084F841102046FEF739FE0020207710BD0F
:103ED00010B5446A616A814201D101200DE0A16AF6
:103EE000814201D1022008E0E16A814201D104202F
:103EF00003E0216B814201D1082020772046FEF7A4
:103F000023FE0020207710BD10B5446A0121626AAB
:103F1000824203D1217784F83E1019E0A26A8242DE
:103F200004D10220207784F83F1011E0E26A824237
:103F300004D10420207784F8401009E0226B8242EB
:103F400004D10820207784F8411001E084F83D1066
:103F50002046FEF765FC0020207710BD10B5846870
:103F600042EA032224F47F440A432243826010BDC4
:103F7000826822F070020A4342F0070181607047B4
:103F800030B5036A026A22F0010202624268846963
:103F900024F073050C682C4323F002058B682B4337
:103FA0000A4DA8420BD123F00805CB6822F44072D9
:103FB0002B434D6923F0040315438A692A43426069
:103FC000846149684163036230BD0000002C0140F8
:103FD00030B5026A036A23F0100303624368846900
:103FE0000D6824F4E64444EA05248D6822F020029A
:103FF00042EA05120B4DA8420ED1CD6822F0800294
:1040000042EA05124D6923F4406343EA85038D6952
:1040100022F0400243EA850343608461496881637A
:10402000026230BD002C014030B5036A026A22F4FE
:10403000807202624268C46923F4007324F073053D
:104040000C682C438D6843EA05230C4DA8420ED121
:10405000CD6823F4006343EA05234D6922F44052FE
:1040600042EA05128D6923F4806342EA0512426038
:10407000C4614968C163036230BD0000002C014087
:1040800030B5046A026A22F4805202624268C3694F
:104090000D6823F4E64343EA05238D6824F40054B5
:1040A00044EA0534064DA84204D14D6922F4804209
:1040B00042EA85124260C36149680164046230BD0E
:1040C000002C014010B5036A046A24F00104046264
:1040D000846924F0F00444EA021423F00A020A433B
:1040E0008461026210BD10B5036A046A24F01004F2
:1040F0000462846923F0A00324F4704444EA023289
:1041000043EA01118261016210BD000030B5ADF5D6
:10411000217D05460146684603F0A0FD002822D116
:104120000DF22D2489A9684603F0CFFEC0B99DF891
:104130002D02A8B12E28F5D09DF82C02C00609D575
:1041400023462A4609A18FA802F06CFF8FA8FFF72B
:10415000DDFFE7E72246294606A002F053FFE1E72C
:10416000684603F046FC0DF5217D30BD25732F25F3
:104170007300000025732F25730A000010B5406AF4
:104180000021C185C184FEF7F3FD10BD01680C312B
:1041900051E8002F22F4907241E80023002BF5D162
:1041A0000168143151E8002F22F0010241E8002398
:1041B000002BF5D1016B012909D101680C3151E8BF
:1041C000002F22F0100241E80023002BF5D120211E
:1041D00080F8421000210163704708B590F8421042
:1041E000222901D0022008BD82684FF480539A42F0
:1041F00001D1016921B1816A9A421BD04AB10AE01A
:104200000268816A5268C2F308020A80816A891CC6
:1042100008E0026972B10268526802F07F020A7017
:10422000816A491C8162C18D491E0904090CC1853E
:1042300003D01BE002685268F1E70168CA6822F007
:104240002002CA600168CA6822F48072CA600168EC
:104250004A6922F001024A61202180F842100021BF
:104260004163026B012A03D0FEF72CFF002008BD3A
:10427000016301680C3151E8002F22F0100241E87F
:104280000023002BF5D101680A68D20602D50A681E
:1042900049680091818DFEF76AFDE7E770B5044635
:1042A00000680169E26821F440511143016121690C
:1042B000A0680843616908432168CA6841F20C6339
:1042C0009A430243CA6020684169A26921F440719F
:1042D000114341611E492068884202D1FDF744FC28
:1042E00001E0FDF731FC00EBC00101EB001260685A
:1042F00064218000B2FBF0F3B3FBF1F36FF018061A
:104300007343B2FBF0F5B2FBF0F605EB8305322305
:1043100003EB0515B5FBF1F5B6FBF1F605F0F0057D
:1043200005EB0615B2FBF0F6B2FBF0F0B0FBF1F0D6
:104330006FF01802504306EB800003EB0010B0FB57
:10434000F1F0216800F00F002844886070BD000083
:10435000003801402DE9F041984617460E460446C4
:10436000069D27E0681C25D02DB1FCF727FFA0EBA8
:104370000800A8421ED920680C3050E8001F21F424
:10438000D07140E80012002AF5D12068143050E8BE
:10439000001F21F0010140E80012002AF5D1202081
:1043A00084F8410084F84200002084F84000032093
:1043B000BDE8F0812068006836EA000004D00020E3
:1043C000B842CFD00020F3E70120F9E70148FEF71B
:1043D000D1BC0000B409002010B500224FF6FF73D5
:1043E00000EB8204B4F8804324040BD49A4207D033
:1043F00002F00F0300EB830041F40041C0F880138A
:10440000D0B210BD521CD2B20B2AE9D31A46F7E73C
:104410007FB51C46012501AE0023009586E80E00FD
:1044200002232A46214600F0B6FC04B0002070BDED
:104430007FB51D4690F81D33089C03B1002401236D
:10444000CDE90031CDE9022402230022294600F003
:10445000A2FC04B0002070BD10B500F0ABFB002042
:1044600010BD8278012A07D102220274012242740F
:10447000002242828182C2820022114600F00FB8DF
:104480007FB51C46012501AE0023009586E80E008D
:104490002A46214600F07FFC04B0002070BD70B5B4
:1044A0000446012580782E46012802D002281ED11C
:1044B0000DE0A160A28126760220A0700321C4F83D
:1044C000D8130022D4F8D00304F000FA0FE02046FD
:1044D00000F012F905004FF0000004D0032D02D0C7
:1044E000022D03D003E0A670207600E0A6702846D7
:1044F00070BD7FB51D4690F81D33089C03B10024A4
:104500000123CDE90031CDE9022400231A462946D2
:1045100000F041FC04B0002070BD1FB5002314461C
:10452000CDE900310822CDE902231A46214600F0E8
:1045300032FC04B0002010BDFCF734BD70B5054658
:10454000002005F2363500BF00EB800404EBC00408
:1045500005EB4404E67B0A348E4201D0FF2909D1E1
:10456000A679964201D0FF2A04D1E4799C4206D074
:10457000FF2B04D0401CC0B20228E5D3FF2070BD41
:104580000B2907D200EB8100B0F88013C1F30E01B4
:10459000C0F880130020704730B48578029C012D4C
:1045A0000FD141F080010174062141740321428240
:1045B000B1EB122F02D140F2094100E000218182CB
:1045C000C482224630BC1946FFF769BF0A880378C7
:1045D0001A440A80017808447047F8B50E4600F185
:1045E0001C05009104462B464FF400720021FFF792
:1045F000D3FF070005D13246294604F2363001F0D8
:10460000DCFB3846F8BD38B50D460091044600F590
:104610008E734FF480720021FFF7BEFF002839D15E
:1046200094F81C1184F8241394F81D1184F82513B0
:10463000B4F81E11A4F8261394F8201184F8281356
:1046400094F8211184F8291394F8221184F82A137C
:1046500094F8231184F82B13082D1BD9B4F82411D6
:10466000A4F82C13B4F82611A4F82E13B4F82811CA
:10467000A4F8301394F82A1184F8321394F82B110B
:1046800084F8331394F82C1184F8341394F82D1112
:1046900084F8351338BDF8B51C461646009341F42E
:1046A000407200F58E731D460021FFF775FF00284C
:1046B00014D16978032911D129788A1EA24200D821
:1046C00014460021A2B2AD1C04E06B5C891C06F804
:1046D000013B89B29142F8D300213170F8BD01004D
:1046E0004FF0000004D0012901D0022901D002209E
:1046F00070470120704700002DE9F84F0126017E28
:1047000004460B27032530464FF009084FF00709F0
:104710004FF0050B4FF00D0A0C2919D2DFE801F01C
:10472000BD060E303C465265707F8BA2627904F163
:1047300010012046FFF7F1FE02202BE061792046B0
:1047400000F09BFA012804D0042817D0022815D0C5
:10475000A3E0207CE18A00F0800031B1802801D103
:10476000257676E084F818B073E0802803D100BF86
:1047700084F818806DE084F818906AE0277668E085
:10478000D4F8C003E0812379A2892046A168FFF70D
:1047900077FE0420207680E02179204600F06DFA33
:1047A0000128E5D005284ED1032652E00090637918
:1047B000A2892046A168FFF79CFED4F8C003E081DF
:1047C0000620E7E76179204600F057FA0128D2D0A9
:1047D000052804D00228C5D0042803D05DE00C20B1
:1047E0002076E1E72776022633E00022237911467E
:1047F0002046FFF745FED4F8C003E0810820C9E752
:104800002179204600F039FA012804D00428B5D0D7
:104810000528C9D041E084F818A0002619E00090CE
:104820000022637911462046FFF763FED4F8C003E7
:10483000E0810A20AEE76179204600F01EFA0128E7
:1048400004D0022894D0042898D026E0002684F8CA
:1048500018A0C4F8D85329460022D4F8D00304F095
:1048600035F81AE0617E491CC9B26176022902D886
:104870002076A07011E0D4F8CC2306212046904782
:104880000025657606A002F0BDFB07A002F0BAFB8A
:104890000FA002F0B7FB257002263046BDE8F88F66
:1048A0004552524F523A2000436F6E74726F6C2023
:1048B0006572726F723A20446576696365206E6F27
:1048C0007420726573706F6E64696E67000000001B
:1048D0000A0000002DE9FE43012641780525044623
:1048E0004FF00008374600F58E79082957D2DFE8E7
:1048F00001F0040F275760697F9708212046FFF7D2
:1049000082FE00284BD194F82B03A07167702CE035
:1049100012212046FFF777FE0028F3D1B4F82E13BA
:1049200051A002F06FFB53A002F06CFBB4F82C1303
:1049300051A002F067FB4FA002F064FB022036E0BA
:104940000121204601F078FD0028DBD10220FFF78D
:10495000F3FD394684F81C734AA002F053FB45A0CE
:1049600002F050FB03206070A07994F81D130091B1
:10497000CDE90180454694F81C33217980222046F8
:1049800001F011FAA07994F81D130091CDE90150BE
:1049900094F81C3361790022204601F004FA60E0AB
:1049A00009212046FFF719FE00285AD10420607023
:1049B00057E0B4F838132046FFF70FFE002850D117
:1049C00065704EE094F83213062779B1FF234A460A
:1049D0002046FFF760FE002843D149462FA002F091
:1049E00011FB24A002F00EFB677032E030A014E04F
:1049F00094F83313072779B1FF234A462046FFF77F
:104A00004AFE00282DD149462EA002F0FBFA19A03B
:104A100002F0F8FA677024E02EA002F0F3FAE0E763
:104A200094F8341371B1FF234A462046FFF733FE52
:104A3000B8B949462BA002F0E5FA0EA002F0E2FA5E
:104A400000260EE02CA002F0DDFA0AA002F0DAFA4D
:104A50000026C4F8D85329460022D4F8D00303F026
:104A600035FF3046BDE8FE835049443A202578683A
:104A7000000000000A0000005649443A20257868EA
:104A8000000000004164647265737320282325646C
:104A9000292061737369676E65642E004D616E75C0
:104AA0006661637475726572203A20257300000098
:104AB0004D616E756661637475726572203A204E41
:104AC0002F41000050726F64756374203A20257383
:104AD0000000000050726F64756374203A204E2FFE
:104AE0004100000053657269616C204E756D62650E
:104AF00072203A202573000053657269616C204E64
:104B0000756D626572203A204E2F410070B58CB0F1
:104B10000E46040030D084F8C4230025C4F878532E
:104B2000C4F87C53FBF7D6FC84F8215384F81E5359
:104B300084F81F5384F820530EB1C4F8CC63144B8F
:104B400007AD0FCB85E80F00002107A803F061FE39
:104B50000F49C4F8D0031C2210316846FBF7A3FBB1
:104B60002146684603F066FFC4F8D403204600F0EF
:104B700097F800200CB070BD06A002F043FA07A021
:104B800002F040FA0AA002F03DFA0220F2E700002B
:104B9000F8A400084552524F523A2000496E7661FF
:104BA0006C696420486F73742068616E646C650082
:104BB0000A00000010B5D0F8C803FCF72BFBBDE8D5
:104BC0001040FFF78CBD10B5012180F81E130022A4
:104BD00080F81F2380F82023C0F8D813D0F8D00322
:104BE00003F074FE002010BD70B50125044680F866
:104BF0001F53002084F81E0384F82103204600F090
:104C0000C1F821792046FFF7BBFC61792046FFF708
:104C1000B7FCC4F8D85300222946D4F8D00303F0D7
:104C200055FE002070BD10B5C820FCF7BBF9002070
:104C300010BDD0F8C803FCF7E7BA10B50124D0F8CE
:104C4000C803FCF7CCFA20B1012805D0022803D113
:104C500001E0002400E00224204610BDD0F8C80383
:104C600001EB410100EB011090F83B1011B190F8FD
:104C70005800704790F859007047D0F8C803FCF707
:104C8000BCBAD0F8C013491CC0F8C01301780B2976
:104C900005D1D0F87813002901D0896908477047F9
:104CA00010B5044690F8C40301281BD10E484FF0FC
:104CB000A041C0F84043C4F8C803016008218160E6
:104CC00001210161022181610021C161FCF7E7FB43
:104CD00008B1FBF724FC0448FCF77EFA01462046A5
:104CE00000F034F8002010BD200E002010B5012186
:104CF000C0F8D813D0F8D003002203F0E7FD00205D
:104D000010BDFEB508AF97E870008DE87000D0F8D0
:104D1000C803FCF791FABDE8FE40FFF7E0BC0021B4
:104D200080F821137047012180F82113C0F8D813AF
:104D3000D0F8D003002203F0C9BD10B5D0F8C803E5
:104D4000FCF70AFCBDE81040FFF7C9BCC0F8C0136F
:104D50007047D0F8C80301EB410100EB011090F857
:104D60003B1011B180F8582001E080F85920002054
:104D7000704710B5D0F8C803FCF7F5FBBDE810404C
:104D8000FFF7ADBC10B5D0F8C803FCF702FCBDE8D6
:104D90001040FFF7A4BC2DE9FF410DF1280898E869
:104DA000F0008DE8F000D0F8C803FCF78CFA04B0EE
:104DB000BDE8F041FFF793BC03460220D3F8781317
:104DC000C9692AB1012A05D189791846FFF749BB7B
:104DD000C979FAE770470000D0F878030549C0693F
:104DE000416505498165012100F8501F817000204F
:104DF0007047000055534243504030202DE9F84F92
:104E00000546D0F8780301270226C469B8464FF05A
:104E10000B0B94F850004FF0090A4FF007090C28CB
:104E200014D2DFE800F0E60614313A5461838CB9FD
:104E3000C1DF84F8611084F85060CDF80080637998
:104E40001F2204F154012846FFF7F2FAD1E06179FC
:104E50002846FFF712FF012802D002280ED010E0EA
:104E6000E06D40B194F86000000645D55FF00300A6
:104E700084F8500085E084F8509082E084F85080F7
:104E80007FE0052850D0B4E0237962892846D4F821
:104E90008C10FFF7BDFA042023E021792846FFF7A4
:104EA000ECFE012851D16289E06D904239D9D4F8E5
:104EB0008C10801A1144C4F88C10E065DBD0237983
:104EC0002846FFF7A5FA94E084F850A059E0CDF801
:104ED0000080637922892846D4F88C10FFF7A8FA5D
:104EE000062084F8500084E061792846FFF7C5FE6B
:104EF000012803D00228C4D10520B9E72289E06D3A
:104F000090420ED9D4F88C10801A1144C4F88C1039
:104F1000E065B0D0CDF8008063792846FFF788FAC5
:104F20002FE00020E065A6E70A20A1E723790D2203
:104F300004F178012846FFF76BFA0820D1E72179C0
:104F40002846FFF79AFE012802D00528BCD050E081
:104F500004F8508F284684F80280D5F87813CC697D
:104F60002179FFF766FE0D280AD12349A06F8842F8
:104F700006D1A16DE06F884202D194F8840048B157
:104F80000227C5F8D86331460022D5F8D00303F0D4
:104F90009DFC2EE00027F4E700222846FFF70CFFD7
:104FA00038B984F8509024E001222846FFF704FF26
:104FB00010B1042813D01CE061792846FFF74EFE9B
:104FC000C0F10100C2B261792846FFF7C2FE217923
:104FD00000222846FFF7BDFE84F850A009E084F8BF
:104FE00050B006E0284600F014F8070001D184F81C
:104FF00050803846BDE8F88F55534253A1220274C1
:10500000FE2242740022428282820122C282FFF783
:1050100046BA21210174FF2141740021418281821D
:10502000C1820A46FFF73BBA70B5D0F87813012564
:10503000CC69A17B21B1022902D0032932D12BE016
:105040002146FFF7DBFF00260546032801D015B1F6
:1050500028E0002526602178022901D9022100E0FC
:10506000491C11A0216001F0CDFF17A001F0CAFF7B
:10507000002002220CE000BF00EB800101EBC00128
:1050800004EB8101401C81F8922081F8C160C0B21C
:1050900021688142F0D805E00021FFF7E2F908B964
:1050A000E07BA073284670BD4E756D626572206FFF
:1050B0006620737570706F72746564204C554E3A3B
:1050C00020256C75000000000A00000010B5144691
:1050D000D0F878230078D3690B2801D0022010BDC6
:1050E00001EB810000EBC10003EB8001342220467C
:1050F0009031FBF7D8F8002010BD70B50546D0F808
:1051000078030026C469617939B12846FFF7A4F90C
:1051100061792846FFF734FA6671217939B128465A
:10512000FFF79AF921792846FFF72AFA2671D5F870
:105130007803C06920B103F061F9D5F87803C6613E
:10514000002070BDFEB50546D0F878035023062236
:1051500001792846FFF7F2F90646FF2801D0022E12
:1051600009D340A001F04EFFD5F87803016840A0B4
:1051700001F048FF29E00146284601F0E3F808B1B4
:105180000220FEBD4FF48077384603F0D5FAD5F8FB
:1051900078130446C861200011D03946FBF79CF80B
:1051A00006EB860000EBC60005EB400090F84C13C0
:1051B0000A060ED5E171B0F84E1361810DE029A009
:1051C00001F020FF34A001F01DFF3DA001F01AFF07
:1051D000D6E7A171B0F84E13218190F854130A0656
:1051E00004D5E171B0F85603608103E0A171B0F815
:1051F00056032081002020736073A073A179284694
:10520000FFF7EAF86071E1792846FFF7E5F82071C9
:105210002846FFF7E1FD208995F81D13022600912D
:10522000CDE9016095F81C33A2796179284600F038
:10523000BAFD608995F81D130091CDE9016095F8DC
:105240001C33E2792179284600F0ADFD2179002256
:105250002846FFF77EFD617900222846FFF779FD99
:105260000020FEBD4445425547203A200000000082
:1052700043616E6E6F742046696E642074686520A9
:10528000696E7465726661636520666F722025734E
:1052900020636C6173732E0043616E6E6F742061C6
:1052A0006C6C6F63617465206D656D6F72792066DB
:1052B0006F72204D53432048616E646C650000009E
:1052C0000A0000002DE9F05F0646D0F878034FF0A1
:1052D000010BC469207B10B101287AD1F1E1B4F847
:1052E000F800216801254FF004094FF000088842BA
:1052F00070D200EB800101EBC00004EB80000227BC
:1053000080F89150B4F8F8104FF0050A01EB8100D5
:1053100000EBC10004EB800292F8900009281AD239
:10532000DFE800F005195CD11AFA1919F900E7A0B5
:1053300001F068FEE8A001F065FEB4F8F81001EB9A
:10534000810202EBC10104EB810181F89090D6F853
:10535000C003C4F8FC009AE1C9B230469F3200F0A5
:1053600032FB002837D1B4F8F80000EB800101EBE4
:10537000C00004EB8001D9A0A23101F043FED6A009
:1053800001F040FEB4F8F80000EB800101EBC00032
:1053900004EB8001D7A0AB3101F034FECEA001F0C8
:1053A00031FEB4F8F80000EB800101EBC00004EB23
:1053B0008001D6A0BC3101F025FEC7A001F022FE7D
:1053C000B4F8F80000EB800101EBC00004EB8000B2
:1053D000FBE078E164E1022874D0DCE0C9B2304639
:1053E00000F021FC10B1022836D0D4E0B4F8F80067
:1053F00000EB800101EBC00004EB800090F89210FC
:1054000041B180F8C150C7A001F0FCFDB2A001F08D
:10541000F9FD01E080F8C180B4F8F810032001EB39
:10542000810202EBC10104EB810181F89000B4F824
:10543000F81001EB810202EBC10104EB810181F85C
:105440009180B4F8F81001EB810202EBC10104EB8A
:10545000810181F892801AE1B4F8F81001EB810023
:1054600000EBC10004EB800090F89210022908D0F4
:1054700080F8C150B0A001F0C5FD97A001F0C2FDB9
:1054800001E080F8C180B4F8F81001EB810202EB72
:10549000C10104EB810181F890A0B4F8F80000EBA1
:1054A000800101EBC00004EB800080F89150B4F85B
:1054B000F80000EB800101EBC00004EB800080F8F5
:1054C0009270E4E054E0C9B23046943200F025FB1B
:1054D000002880D1B4F8F80000EB800101EBC00097
:1054E00004EB800090F8C11001292CD150F8941FD2
:1054F0008088414396A001F085FD77A001F082FDF0
:10550000B4F8F80000EB800101EBC00004EB800070
:10551000D0F8941001E0B7E035E095A001F072FDFD
:105520006DA001F06FFDB4F8F80000EB800101EB15
:10553000C00004EB8000B0F8981092A001F062FD6A
:1055400065A001F05FFDB4F8F80000EB800101EB0D
:10555000C00004EB800080F89050B4F8F81001EB24
:10556000810202EBC10104EB810181F891805FE0CF
:10557000B4F8F81001EB810202EBC10104EB8101E8
:1055800081F890A083E0C9B230469C3200F002FB63
:1055900020B1022851D0042861D078E0B4F8F80096
:1055A00000EB800101EBC00004EB800090F89C1040
:1055B000062901D002290BD1D6F8C023D4F8FC303B
:1055C000D21A42F210739A4202D280F890705EE0D2
:1055D00071A001F017FD40A001F014FDB4F8F8002F
:1055E00000EB800101EBC00004EB800090F89D10FF
:1055F0006DA001F007FD38A001F004FDB4F8F8003B
:1056000000EB800101EBC00004EB800090F89E10DD
:105610006CA001F0F7FC30A001F0F4FCB4F8F80045
:1056200000EB800101EBC00004EB800080F890509B
:1056300034F8F80F401C208029E03FA001F0E2FC84
:1056400025A001F0DFFCB4F8F810082001EB81027E
:1056500002EBC10104EB810181F8900017E0B4F87E
:10566000F80000EB800101EBC00004EB800080F843
:105670009050B4F8F80000EB800101EBC00004EB9F
:10568000800080F8917002E0491CA4F8F810C6F878
:10569000D89349460022D6F8D00303F017F912E058
:1056A000A4F8F8802573C6F8D89349460022D6F8A6
:1056B000D00303F00BF9D6F8CC23022130469047F3
:1056C00001E04FF0000B5846BDE8F09F4C554E20CE
:1056D0002325643A200000000A000000496E71751D
:1056E0006972792056656E646F7220203A202573A6
:1056F00000000000496E71756972792050726F6404
:10570000756374203A20257300000000496E71759E
:105710006972792056657273696F6E203A2025731D
:10572000000000004D534320446576696365207294
:1057300065616479000000004D534320446576693B
:105740006365204E4F54207265616479000000004B
:105750004D534320446576696365206361706163DE
:10576000697479203A20256C75204279746573003C
:10577000426C6F636B206E756D626572203A2025F6
:105780006C750000426C6F636B2053697A65202052
:10579000203A20256C75000053656E7365204B65BB
:1057A0007920203A202578004164646974696F6E1D
:1057B000616C2053656E736520436F6465203A20E9
:1057C000257800004164646974696F6E616C2053D0
:1057D000656E736520436F6465205175616C696601
:1057E0006965723A202578002DE9F84F0646D0F811
:1057F000780301EB810202EBC102C069012500EBD5
:1058000082042F4694F890204FF004084FF00809C6
:10581000052A2ED000204FF0050A062A02D0072ABA
:1058200015D117E0002300901A46304600F035F9F4
:1058300016E002281AD024E084F890903EE0C6F8E2
:10584000D88341460022D6F8D00303F03FF828461B
:10585000BDE8F88F002300901A46304600F009FAA0
:105860000028E6D184F890700025E8E784F890A03D
:10587000E5E704F19C02304600F08CF920B10228E3
:105880001ED00428DBD1D7E794F89C1010A09034E8
:1058900001F0B8FB12A001F0B5FB617B11A001F093
:1058A000B1FB0FA001F0AEFBA17B15A001F0AAFB9C
:1058B0000BA001F0A7FB2770022060700225BEE755
:1058C00018A001F09FFB06A001F09CFBB7E70000C9
:1058D00053656E7365204B657920203A202578004A
:1058E0000A0000004164646974696F6E616C205342
:1058F000656E736520436F6465203A20257800004B
:105900004164646974696F6E616C2053656E736580
:1059100020436F6465205175616C69666965723AF0
:10592000202578004D534320446576696365204EF9
:105930004F54207265616479000000002DE9F8433E
:105940000446D0F87803089E0F46C56994F81E03F4
:1059500060B120780B2809D107EB870000EBC70066
:1059600005EB800090F89010012902D00220BDE8DC
:10597000F8830621297380F89010A5F8FA7039464B
:105980002046009600F089F8D4F8C08340F27120D8
:105990004FF00109464309E0D4F8C013A1EB080019
:1059A000B0EB061F0CD894F81E0348B139462046C8
:1059B000FFF71AFF0128EFD085F80C900020D6E7FA
:1059C00085F80C90D2E72DE9F0411546D0F8782300
:1059D00002270026D4694FF0010894F85220012ACA
:1059E00002D0022A56D126E024208022E06584F8E5
:1059F00060200A2284F86220C4F86360C4F86760FB
:105A0000A4F86B60122284F86320490184F86410C2
:105A100084F8656084F8666084F8670084F86860DC
:105A2000022084F8508084F8520004F1100001270D
:105A3000C4F88C002EE0FFF7E1F907002AD12221FB
:105A40002846FAF749FCD4F88C00007800F01F00D3
:105A50006870D4F88C00007840092870D4F88C0065
:105A60004078000602D585F8028000E0AE7054F858
:105A70008C0F10228168C5F80310C068C5F80700B4
:105A8000216805F10C001031FAF70DFC2068006A5E
:105A9000C5F81D003846BDE8F0812DE9F0411546F6
:105AA00002461F46D2F878330220069EDC6994F83D
:105AB0005230012B06D0022B2DD1BDE8F04110460B
:105AC000FFF79CB9B4F8980010217043E06580207E
:105AD00084F860000A2084F8620004F16300FAF799
